:020000040800F2
:100000000080002065190008B5190008B51900081E
:10001000B5190008B5190008B5190008000000005E
:10002000000000000000000000000000B5190008FA
:10003000B519000800000000B519000809050008FE
:10004000B5190008B5190008B5190008B519000858
:10005000B5190008B5190008B5190008B519000848
:10006000B5190008B5190008B5190008B519000838
:10007000B5190008B5190008B5190008B519000828
:10008000B5190008B5190008B519000800000000EE
:10009000000000000000000000000000B51900088A
:1000A000B5190008B5190008B5190008B5190008F8
:1000B000000000000000000000000000B51900086A
:1000C000B5190008B5190008B5190008B5190008D8
:1000D000B5190008B5190008B5190008000000009E
:1000E000B5190008B5190008000000000000000064
:1000F000000000000000000000000000B51900082A
:1001000000000000000000001505000800000000CD
:100110000000000000000000B51900080000000009
:10012000B5190008B5190008B5190008B519000877
:10013000B5190008000000000000000000000000E9
:1001400000000000000000000000000000000000AF
:10015000B5190008B5190008B5190008B519000847
:10016000000000000000000000000000000000008F
:10017000000000000000000000000000000000007F
:10018000B5190008B51900080000000000000000C3
:1001900000000000B5190008000000000000000089
:1001A000000000000000000000000000000000004F
:1001B000000000000000000000000000B519000869
:0801C000B5190008B51900088B
:1001C80010B5054C237833B9044B13B10448AFF389
:1001D80000800123237010BD0C00002000000000E7
:1001E800001A000808B5034B1BB103490348AFF3D5
:1001F800008008BD0000000010000020001A000860
:1002080053B94AB9002908BF00281CBF4FF0FF3175
:100218004FF0FF3000F072B9ADF1080C6DE904CE73
:1002280000F006F8DDF804E0DDE9022304B07047C9
:100238002DE9F047089E04468846002B4BD18A4298
:10024800154667D9B2FA82F24AB1C2F1200701FA1B
:1002580002F320FA07F7954047EA030894404FEA6B
:10026800154E230CB8FBFEF71FFA85FC0EFB17880A
:1002780043EA084307FB0CF1994209D9EB1807F147
:10028800FF3080F01B81994240F21881023F2B44D5
:100298005B1AA4B2B3FBFEF00EFB103344EA03442E
:1002A80000FB0CFCA44509D92C1900F1FF3380F0A0
:1002B8000781A44540F2048102382C4440EA0740F3
:1002C800A4EB0C0400271EB1D4400023C6E9004368
:1002D8003946BDE8F0878B4209D9002E00F0EB8043
:1002E8000027C6E9000138463946BDE8F087B3FA69
:1002F80083F7002F47D18B4202D3824200F2FA8063
:10030800841A61EB030301209846002EE0D0C6E969
:100318000048DDE702B9FFDEB2FA82F2002A40F0B7
:100328008F80491B4FEA154E1FFA85F80127B1FB4C
:10033800FEFC230C0EFB1C1143EA014308FB0CF1E5
:10034800994207D9EB180CF1FF3002D2994200F21A
:10035800CD808446591AA3B2B1FBFEF00EFB1014EF
:1003680043EA044408FB00F8A04507D92C1900F11A
:10037800FF3302D2A04500F2B6801846A4EB080469
:1003880040EA0C409FE7C7F1200CBB4022FA0CFE64
:100398004EEA030E01FA07F420FA0CF521FA0CF3E1
:1003A8004FEA1E482543B3FBF8F92C0C08FB193318
:1003B8001FFA8EFA44EA034309FB0AF49C4202FA44
:1003C80007F200FA07F10BD91EEB030309F1FF301E
:1003D80080F087809C4240F28480A9F1020973442E
:1003E8001B1BADB2B3FBF8F008FB103345EA03441E
:1003F80000FB0AFAA24508D91EEB040400F1FF33FA
:100408006BD2A24569D90238744440EA0940A0FB7E
:100418000289A4EB0A044C45C2464B4654D351D03A
:10042800002E69D0B1EB0A0564EB030404FA0CFC56
:10043800FD40FC404CEA0505C6E90054002747E7A3
:10044800C2F1200320FA03F7954001FA02F021FADD
:1004580003F34FEA154E3843010CB3FBFEF71FFABE
:1004680085F80EFB173341EA034107FB08F38B427B
:1004780004FA02F407D9691807F1FF3C2FD28B421E
:100488002DD9023F2944CB1A81B2B3FBFEF00EFBF3
:10049800103341EA034100FB08F38B4207D969187E
:1004A80000F1FF3C17D28B4215D902382944C91AEA
:1004B80040EA07473BE73746304609E70746E7E69D
:1004C8001846FBE64145ABD2B8EB020A69EB0E02CF
:1004D80001381346A4E76046E9E7184695E76746FA
:1004E800D1E781467CE702382C4447E7ACF1020C9F
:1004F8002B442FE7384608E73746E9E6704700BF40
:1005080008B500F0DDF900F07CFA08BD08B502482E
:1005180000F019FF08BD00BF2800002000B587B013
:10052800002100910A4B1A6B42F001021A631B6BFF
:1005380003F001030093009B2023019301230293FE
:10054800039101A9034800F061FA07B05DF804FBC4
:100558000038024000000240FEE7000000B589B004
:100568001048114B036042F20F73C36041F28733A6
:10057800436000F0D9FF80B90022029203920492EE
:100588000592069207926023019301A9054801F09C
:1005980029F820B909B05DF804FBFFF7DDFFFFF784
:1005A800DBFF00BF28000020000C004008B5094808
:1005B800094B03604FF4E133436000238360C36059
:1005C800036183610C23436101F098F900B908BD08
:1005D800FFF7C2FF700000200044004010B592B041
:1005E800072305934FF48033069301230793089359
:1005F80002230B934FF480030C93542833D07828AC
:1006080043D032282DD104230D9332230E93022395
:100618000F93109311930F220092019300230293DA
:100628004FF4805203920493012405A800F0FCFBC8
:1006380000283FD12146684600F020FB00283BD126
:1006480000F0CCFB1D4BA3FB0030800900F0B2F991
:10065800042000F0C5F9002211464FF0FF3000F0E9
:1006680067F912B010BD04230D9354230E9302248E
:100678000F94109411940F23009301940023029374
:100688004FF4805203920493CFE704230D93782309
:100698000E9302230F93109311930F22009201934C
:1006A800002302934FF4A05303934FF48053049311
:1006B8000324BAE7FFF750FFFFF74EFFD34D621050
:1006C80010B500F0E3F83220FFF788FFFFF726FFA8
:1006D800FFF76CFFFFF742FF00210F4801F002F817
:1006E80008B1FFF739FF002409E0013CA4B20A4B26
:1006F8001B685C63012000F0F5F8002CF5D1064B6F
:10070800DB689C42F9D20134A4B2034B1B685C63DA
:10071800012000F0E7F8F2E72800002008B50320E0
:1007280000F0F4F80B4A536A43F4E02353620022C2
:1007380011466FF00B0000F0FBF8002211466FF035
:100748000A0000F0F5F8002211466FF0090000F0E9
:10075800EFF808BD00ED00E010B588B00024019462
:10076800144B1A6C42F008021A641A6C02F0080260
:100778000192019A02941A6B42F001021A631B6BF0
:1007880003F001030293029B0123039302230493C2
:1007980005940694079303A9074800F037F9224601
:1007A8000F21322000F0C4F8322000F0F5F808B02C
:1007B80010BD00BF003802400000024030B589B0CB
:1007C80000240194184B1A6C42F400321A641A6C13
:1007D80002F400320192019A02941A6B42F001026B
:1007E8001A631B6B03F001030293029B0423039318
:1007F80002230493012305930694072307930B4DC3
:1008080003A9284600F002F90823039303A9284600
:1008180000F0FCF8262000F0BFF822460F21262021
:1008280000F086F809B030BD0038024000000240F0
:10083800034AD2F8883043F47003C2F8883070470E
:1008480000ED00E010B504460E4B18784FF47A73AB
:10085800B3FBF0F30C4A1068B0FBF3F000F0AAF811
:1008680068B90F2C01D901200AE0002221464FF077
:10087800FF3000F05DF8034B5C60002000E00120D1
:1008880010BD00BF040000200000002008B50B4B7D
:100898001A6842F400721A601A6842F480621A6098
:1008A8001A6842F480721A60032000F02FF80020C2
:1008B800FFF7C8FFFFF732FF002008BD003C0240E9
:1008C800034A1168034B1B780B441360704700BF41
:1008D800B400002004000020014B1868704700BFD6
:1008E800B400002038B50446FFF7F6FF0546B4F11A
:1008F800FF3F02D0044B1B781C44FFF7EDFF401B61
:10090800A042FAD338BD00BF04000020074AD368CC
:1009180023F4E0631B041B0C000200F4E06018439E
:1009280040F0BF6040F40030D060704700ED00E058
:1009380030B4174BDB68C3F30223C3F10704042C5C
:1009480028BF04241D1D062D18D9033B4FF0FF3581
:1009580005FA04F421EA0401994005FA03F322EAAE
:100968000303194300280BDB0901C9B200F16040F9
:1009780000F5614080F8001330BC70470023E5E7BC
:1009880000F00F000901C9B2024B1954F4E700BF87
:1009980000ED00E014ED00E0002807DB00F01F0286
:1009A800400901239340024A42F82030704700BFB3
:1009B80000E100E00138B0F1807F0AD2064B5860B0
:1009C800064AF02182F823100020986007221A6056
:1009D80070470120704700BF10E000E000ED00E024
:1009E800042805D0054A136823F0040313607047F0
:1009F800024A136843F004031360704710E000E0F4
:100A0800704708B5FFF7FCFF08BD000000230F2B57
:100A180000F2BE80F0B482B05DE086685F00032417
:100A2800BC4026EA0406CC68BC403443846046686F
:100A380026EA02064C68C4F300129A403243426028
:100A480056E0DC08083450F8247003F007029600DA
:100A58000F22B24027EA02070A69B2403A4340F837
:100A6800242059E0022200E00022B2403A43023436
:100A7800484E46F82420484A1468EA4302EA040625
:100A88004F6817F4803F01D045EA0406424C2660BF
:100A9800646802EA04064F6817F4003F01D045EA8B
:100AA80004063D4C6660A46802EA04064F6817F421
:100AB800801F01D045EA0406374CA660E46822404E
:100AC8004E6816F4001F01D045EA0402324CE26079
:100AD80001330F2B59D801229A400C6804EA020509
:100AE800AA42F5D14C6804F00304013C012C94D9C6
:100AF8004A6802F00302032A09D0C4685E00032290
:100B0800B24024EA02048A68B2402243C2604A68BA
:100B180002F00302022A94D004685E000322B24065
:100B280024EA02044A6802F00302B2402243026047
:100B38004A6812F4403FCBD000220192174A546C05
:100B480044F480445464526C02F480420192019A45
:100B58009C08A61C0F4A52F8267003F00302960060
:100B68000F22B24027EA02070D4A90423FF47CAFB9
:100B780002F58062904206D002F5806290423FF40E
:100B880071AF072271E701226FE702B0F0BC70472E
:100B9800704700BF00380140003C01400038024067
:100BA80000000240324B9B6803F00C03042B5CD01E
:100BB800082B01D02F4870472DE9F04B2C4B5A6871
:100BC80002F03F025B6813F4800F2BD0284B5B6860
:100BD800C3F388131E4600275C010025E41A65EB61
:100BE8000705A90141EA9461A001001B61EB050119
:100BF800CB0043EA5073C400A01943EB07014B0232
:100C080043EAD0534402204619460023FFF7F8FA76
:100C1800174B5B68C3F3014301335B00B0FBF3F090
:100C2800BDE8F08B124B5B68C3F388131E460027A0
:100C38005C010025E41A65EB0705A90141EA946106
:100C4800A001001B61EB0501CB0043EA5073C4000F
:100C5800A01943EB07018B0243EA90538402204614
:100C680019460023FFF7CCFAD2E70348704700BFC4
:100C7800003802400024F40000127A00002800F036
:100C88009E8070B50446504B1B6803F007038B42E7
:100C980009D2CBB24C4A1370136803F007038B4296
:100CA80001D0012070BD236813F0020F17D013F094
:100CB800040F04D0454A936843F4E05393602368D3
:100CC80013F0080F04D0414A936843F460439360DB
:100CD8003E4A936823F0F003A068034393600D46EF
:100CE800236813F0010F32D06368012B21D09A1EBC
:100CF800012A25D9354A126812F0020F61D033490A
:100D08008A6822F0030213438B60FFF7E5FD06466D
:100D18002E4B9B6803F00C036268B3EB820F16D06E
:100D2800FFF7DAFD801B41F288339842F0D903209F
:100D3800B8E7264A126812F4003FE0D10120B1E773
:100D4800224A126812F0007FD9D10120AAE71E4B6F
:100D58001B6803F00703AB4209D9EAB21A4B1A70B1
:100D68001B6803F00703AB4201D001209AE7236810
:100D780013F0040F06D0154A936823F4E053E16892
:100D88000B439360236813F0080F07D00F4A93684A
:100D980023F46043216943EAC1039360FFF702FF2C
:100DA8000A4B9B68C3F30313094AD35CD840094B29
:100DB8001860094B1868FFF745FD002072E701200D
:100DC800704701206EE700BF003C02400038024037
:100DD800181A00080000002008000020014B1868BD
:100DE800704700BF0000002008B5FFF7F7FF044B6D
:100DF8009B68C3F38223034AD35CD84008BD00BF75
:100E080000380240281A000808B5FFF7E7FF044B2E
:100E18009B68C3F34233034AD35CD84008BD00BF84
:100E280000380240281A0008002800F0F48170B544
:100E380082B00446036813F0010F3BD0A74B9B68B0
:100E480003F00C03042B2CD0A44B9B6803F00C0379
:100E5800082B21D06368B3F5803F4FD0B3F5A02F9E
:100E680052D09E4B1A6822F480321A601A6822F413
:100E780080221A606368002B50D0FFF72DFD0546CD
:100E8800964B1B6813F4003F14D1FFF725FD401B58
:100E98006428F5D90320C3E1904B5B6813F4800FF5
:100EA800D8D08E4B1B6813F4003F03D06368002B27
:100EB80000F0B381236813F0020F55D0874B9B686D
:100EC80013F00C0F3ED0854B9B6803F00C03082BE6
:100ED80033D0E368002B68D0814B01221A60FFF7FA
:100EE800FBFC05467D4B1B6813F0020F54D1FFF73E
:100EF800F3FC401B0228F5D9032091E1774A1368D7
:100F080043F480331360B5E7744B1A6842F48022C7
:100F18001A601A6842F480321A60ABE7FFF7DCFC0B
:100F280005466E4B1B6813F4003FC3D0FFF7D4FC93
:100F3800401B6428F5D9032072E1684B5B6813F401
:100F4800800FC6D1654B1B6813F0020F04D0E3680D
:100F5800012B01D0012063E1604A136823F0F803F4
:100F6800216943EAC1031360236813F0080F40D0D6
:100F7800636963B35B4B01221A60FFF7ADFC05465A
:100F8800564B5B6F13F0020F33D1FFF7A5FC401BE4
:100F98000228F5D9032043E1504A136823F0F803E7
:100FA800216943EAC1031360DEE74D4B00221A6052
:100FB800FFF792FC0546494B1B6813F0020FD3D08C
:100FC800FFF78AFC401B0228F5D9032028E1454B8E
:100FD80000221A60FFF780FC0546404B5B6F13F058
:100FE800020F06D0FFF778FC401B0228F5D9032032
:100FF80016E1236813F0040F79D0384B1B6C13F0FB
:10100800805F33D100230193344B1A6C42F0805235
:101018001A641B6C03F080530193019B0125324B2A
:101028001B6813F4807F23D0A368012B34D0052BD1
:1010380038D02A4B1A6F22F001021A671A6F22F071
:1010480004021A67A368002B36D0FFF745FC064652
:10105800224B1B6F13F0020F48D1FFF73DFC801B9A
:1010680041F288339842F3D90320D9E00025D6E726
:101078001D4A136843F480731360FFF72DFC06467E
:10108800194B1B6813F4807FCED1FFF725FC801B1A
:101098000228F5D90320C3E0104A136F43F0010377
:1010A8001367CFE70D4B1A6F42F004021A671A6FE5
:1010B80042F001021A67C5E7FFF70EFC0646074B28
:1010C8001B6F13F0020F11D0FFF706FC801B41F2D3
:1010D80088339842F3D90320A2E000BF00380240C9
:1010E80000004742800E474200700040EDB9A369F6
:1010F800002B00F094804D4A926802F00C02082AF6
:1011080054D0022B17D04A4B00221A60FFF7E4FB99
:101118000446464B1B6813F0007F45D0FFF7DCFB05
:10112800001B0228F5D903207AE0404A136C23F00B
:1011380080531364DBE73E4B00221A60FFF7CCFBB9
:1011480005463A4B1B6813F0007F06D0FFF7C4FB37
:10115800401B0228F5D9032062E0E369226A1343A1
:10116800626A43EA8213A26A5208013A43EA0243D6
:10117800E26A43EA0263226B43EA02732B4A536032
:101188002B4B01221A60FFF7A7FB0446274B1B686D
:1011980013F0007F06D1FFF79FFB001B0228F5D94B
:1011A80003203DE000203BE0002039E0012B39D04E
:1011B8001E4B5B6803F48001E269914201D0012073
:1011C8002EE003F03F02216A8A4201D0012027E085
:1011D800616A47F6C0721A40B2EB811F01D0012044
:1011E8001EE003F44031A26A5208013AB1EB024F03
:1011F80001D0012014E003F07062E16AB2EB016FE4
:1012080001D001200CE003F0E043226BB3EB027F36
:101218000AD0012004E001207047012000E00020EE
:1012280002B070BD0120FBE70020F9E7003802405A
:101238006000474270B4036A23F001030362036A43
:101248004268846924F073040D6845EA040623F0B3
:1012580002048B6823430D4DA84209D00B4DA842C8
:101268000DD0426086614A684263036270BC704771
:1012780023F00803CC68234323F00403EEE722F4A9
:1012880040724C6914438A692243EAE7000001402E
:1012980030B4036A23F480730362036A4268C46942
:1012A80024F073040D682C4323F400738D6843EA1B
:1012B80005230F4DA84209D00D4DA8420ED042601B
:1012C800C4614A68C263036230BC704723F4006398
:1012D800CD6843EA052323F48063EDE722F4405206
:1012E8004D6942EA05128D6942EA0512E7E700BF37
:1012F8000000014030B4036A23F480530362036A98
:101308004468C26922F4E6420D6842EA052223F4E1
:1013180000538D6843EA0533074DA84206D0446060
:10132800C2614A680264036230BC704724F4804496
:101338004D6944EA8514F2E70000014070477047A0
:1013480070477047704710B5044603681A6912F071
:10135800020F11D0DA6812F0020F0DD06FF00202FE
:101368001A610123037703689B6913F0030F70D098
:10137800FFF7E6FF0023237723681A6912F0040FAA
:1013880012D0DA6812F0040F0ED06FF004021A615E
:101398000223237723689B6913F4407F5FD020469C
:1013A800FFF7CEFF0023237723681A6912F0080F8E
:1013B80012D0DA6812F0080F0ED06FF008021A6126
:1013C800042323772368DB6913F0030F4ED02046EC
:1013D800FFF7B6FF0023237723681A6912F0100F6E
:1013E80012D0DA6812F0100F0ED06FF010021A61E6
:1013F800082323772368DB6913F4407F3DD0204618
:10140800FFF79EFF0023237723681A6912F0010F64
:1014180003D0DA6812F0010F36D123681A6912F086
:10142800800F03D0DA6812F0800F34D123681A696C
:1014380012F0400F03D0DA6812F0400F32D123685F
:101448001A6912F0200F03D0DA6812F0200F30D199
:1014580010BDFFF774FF2046FFF773FF8AE72046A9
:10146800FFF76DFF2046FFF76CFF9BE72046FFF76D
:1014780066FF2046FFF765FFACE72046FFF75FFFF2
:101488002046FFF75EFFBDE76FF001021A612046B4
:10149800FFF754FFC1E76FF080021A61204600F0A1
:1014A80092F9C3E76FF040021A612046FFF74AFF3E
:1014B800C5E76FF020021A61204600F083F9C7E7FC
:1014C8000368184A904203D0A2F57442904203D1AF
:1014D80023F070034A681343124A90420BD0A2F5D6
:1014E8007442904207D002F59A32904203D002F536
:1014F8000062904203D123F44073CA68134323F077
:1015080080034A69134303608B68C3620B68836274
:10151800044B984202D00123436170470B6903636F
:10152800F9E700BF0000014038B310B5044690F851
:101538003D30EBB1022384F83D30211D2068FFF7D0
:10154800BFFF012384F8463084F83E3084F83F30EA
:1015580084F8403084F8413084F8423084F84330CD
:1015680084F8443084F8453084F83D30002010BDBC
:1015780080F83C30FFF7F0F8DCE701207047000006
:1015880030B4036A23F010030362036A4468826973
:1015980022F4E6420D6842EA052223F020038D6812
:1015A80043EA05130E4DA84209D00D4DA8420ED0AE
:1015B800446082614A688263036230BC704723F0EA
:1015C8008003CD6843EA051323F04003EDE724F4D4
:1015D80040644D6944EA85048D6944EA8504E7E777
:1015E8000000014038B590F83C30012B66D00D461C
:1015F8000446012380F83C300C2A5DD8DFE802F06D
:10160800075C5C5C1E5C5C5C335C5C5C470000688F
:10161800FFF710FE2268936943F00803936122687C
:10162800936923F0040393612268936929690B4342
:1016380093610020002384F83C3038BD0068FFF730
:101648009FFF2268936943F400639361226893695A
:1016580023F48063936122689369296943EA01232B
:1016680093610020E6E70068FFF712FE2268D3695D
:1016780043F00803D3612268D36923F00403D361DC
:101688002268D36929690B43D3610020D2E7006837
:10169800FFF730FE2268D36943F40063D361226800
:1016A800D36923F48063D3612268D369296943EA43
:1016B8000123D3610020BDE70120BBE70220BCE77E
:1016C80010B401F01F01012303FA01F4036A23EAAD
:1016D80004030362036A8A40134303625DF8044B00
:1016E800704700000A4651BB90F83E30DBB213F158
:1016F800FF3318BF0123002B5DD110B5002A3AD162
:10170800022380F83E301146044601220068FFF7A4
:10171800D7FF23682A4A93423DD02368284A934238
:101728003ED0A2F5744293423AD002F59A329342DF
:1017380036D01A6842F001021A6000203AE0042903
:1017480009D008290FD090F84130DBB213F1FF33EC
:1017580018BF0123CFE790F83F30DBB213F1FF3316
:1017680018BF0123C7E790F84030DBB213F1FF330D
:1017780018BF0123BFE7042A05D0082A07D002238F
:1017880080F84130BFE7022380F83F30BBE70223EF
:1017980080F84030B7E75A6C42F400425A64BCE71C
:1017A8009A6802F00702062A07D01A6842F0010276
:1017B8001A60002010BD012070470020FAE700BF22
:1017C80000000140704770472DE9F04B044602685D
:1017D800136923F44053C1680B431361836802699A
:1017E800134342691343C2691A430168CB6823F45F
:1017F800164323F00C031343CB600268536923F4A8
:10180800407381690B43536103683A4A934206D097
:1018180002F58062934202D0FFF7E6FA01E0FFF793
:10182800F3FAE369B3F5004F30D04FF0000906181A
:1018380049EB090716EB000B47EB090C4FEACC0301
:1018480043EA5B734FEACB0293469C4663689A006F
:101858009B0F10EB0B0049EB0C01FEF7D1FC264D5A
:10186800A5FB00325109642202FB11021301323335
:10187800A5FB03235B0903F0F00202EB011203F05E
:101888000F03216813448B60BDE8F08B83464FF04B
:10189800000C06184CEB0C0716EB000847EB0C097C
:1018A8004FEAC90343EA58734FEAC802904699467B
:1018B80062680021921841EB01031BEB08004CEB16
:1018C8000901FEF79DFC0C4DA5FB0032510964226D
:1018D80002FB1102D3003233A5FB03235B095A0034
:1018E80002F4F87202EB011203F0070321681344B3
:1018F8008B60C9E7001001401F85EB5158B310B544
:10190800044690F83D300BB3242384F83D30226818
:10191800D36823F40053D3602046FFF755FF2268AD
:10192800136923F4904313612268536923F02A034F
:1019380053612268D36843F40053D36000202064C5
:10194800202384F83D3084F83E3010BD80F83C30C8
:10195800FEF734FFD8E7012070470000DFF834D0E5
:101968000D480E490E4A002302E0D458C4500433EF
:10197800C4188C42F9D30B4A0B4C002301E01360C6
:101988000432A242FBD3FEF753FF00F011F8FEF732
:1019980097FE704700800020000000200C00002007
:1019A800401A00080C000020B8000020FEE70000E4
:1019B80070B50D4E0D4CA41BA4100025A54209D1ED
:1019C8000B4E0C4C00F018F8A41BA4100025A542DF
:1019D80005D170BD56F8253098470135EEE756F821
:1019E800253098470135F2E7381A0008381A0008F8
:1019F800381A00083C1A0008F8B500BFF8BC08BC43
:101A08009E467047F8B500BFF8BC08BC9E467047B4
:101A18000000000000000000010203040607080996
:081A28000000000001020304AC
:081A300008E8FF7F010000003F
:041A3800ED010008B4
:041A3C00C9010008D4
:0C1A40000024F400010000001000000071
:040000050800196571
:00000001FF
