:020000040800F2
:10000000008000200509000855090008550900086E
:1000100055090008550900085509000800000000AE
:10002000000000000000000000000000550900086A
:1000300055090008000000005509000809020008E1
:100040005509000855090008550900085509000818
:100050005509000855090008550900085509000808
:1000600055090008550900085509000855090008F8
:1000700055090008550900085509000855090008E8
:10008000550900085509000855090008000000003E
:1000900000000000000000000000000055090008FA
:1000A00055090008550900085509000855090008B8
:1000B00000000000000000000000000055090008DA
:1000C0005509000855090008550900085509000898
:1000D00055090008550900085509000800000000EE
:1000E0005509000855090008000000000000000044
:1000F000000000000000000000000000550900089A
:100100000000000000000000550900080000000089
:1001100000000000000000001502000800000000C0
:100120005509000855090008550900085509000837
:100130005509000800000000000000000000000059
:1001400000000000000000000000000000000000AF
:100150005509000855090008550900085509000807
:10016000000000000000000000000000000000008F
:10017000000000000000000000000000000000007F
:1001800055090008550900080000000000000000A3
:1001900000000000550900080000000000000000F9
:1001A000000000000000000000000000000000004F
:1001B00000000000000000000000000055090008D9
:0801C00055090008550900086B
:1001C80010B5054C237833B9044B13B10448AFF389
:1001D80000800123237010BD0C00002000000000E7
:1001E800A009000808B5034B1BB103490348AFF346
:1001F800008008BD0000000010000020A0090008D1
:1002080008B500F0D5F800F04AF908BD08B502486D
:1002180000F054FA08BD00BF2800002008B52021CE
:10022800014800F00DFA08BD0000024000B587B093
:10023800002100910A4B1A6B42F001021A631B6BF2
:1002480003F001030093009B2023019301230293F1
:10025800039101A9034800F027F907B05DF804FBF2
:100268000038024000000240FEE7000008B50748D9
:10027800074B0360182343604FF6FF13C36000F079
:100288000FFB00B908BDFFF7EFFF00BF28000020F3
:100298000010004008B500F071F8FFF7C7FFFFF73E
:1002A800E5FF024800F0D6F9FEE700BF280000206D
:1002B80008B5032000F088F80B4A536A43F4E0239A
:1002C8005362002211466FF00B0000F08FF80022F5
:1002D80011466FF00A0000F089F8002211466FF00D
:1002E800090000F083F808BD00ED00E010B582B009
:1002F80000240194094B1A6C42F010021A641B6C1A
:1003080003F010030193019B362000F0A3F8224666
:100318000F21362000F06AF802B010BD0038024004
:10032800034AD2F8883043F47003C2F88830704723
:1003380000ED00E010B504460E4B18784FF47A73C0
:10034800B3FBF0F30C4A1068B0FBF3F000F090F840
:1003580068B90F2C01D901200AE0002221464FF08C
:10036800FF3000F043F8034B5C60002000E0012000
:1003780010BD00BF040000200000002008B50B4B92
:100388001A6842F400721A601A6842F480621A60AD
:100398001A6842F480721A60032000F015F80020F1
:1003A800FFF7C8FFFFF784FF002008BD003C0240AC
:1003B800034A1168034B1B780B441360704700BF56
:1003C8007000002004000020074AD36823F4E0638B
:1003D8001B041B0C000200F4E060184340F0BF60EF
:1003E80040F40030D060704700ED00E030B4174BA7
:1003F800DB68C3F30223C3F10704042C28BF0424D9
:100408001D1D062D18D9033B4FF0FF3505FA04F4DE
:1004180021EA0401994005FA03F322EA0303194388
:1004280000280BDB0901C9B200F1604000F561400A
:1004380080F8001330BC70470023E5E700F00F0098
:100448000901C9B2024B1954F4E700BF00ED00E0FE
:1004580014ED00E0002807DB00F01F02400901232B
:100468009340024A42F82030704700BF00E100E0A4
:100478000138B0F1807F0AD2064B5860064AF02155
:1004880082F823100020986007221A607047012024
:10049800704700BF10E000E000ED00E0704708B5CD
:1004A800FFF7FCFF08BD000000230F2B00F2BE8001
:1004B800F0B482B05DE086685F000324BC4026EAA1
:1004C8000406CC68BC4034438460466826EA0206C9
:1004D8004C68C4F300129A403243426056E0DC088C
:1004E800083450F8247003F0070296000F22B24037
:1004F80027EA02070A69B2403A4340F8242059E043
:10050800022200E00022B2403A430234484E46F844
:100518002420484A1468EA4302EA04064F6817F49C
:10052800803F01D045EA0406424C2660646802EA2E
:1005380004064F6817F4003F01D045EA04063D4C15
:100548006660A46802EA04064F6817F4801F01D0A9
:1005580045EA0406374CA660E46822404E6816F463
:10056800001F01D045EA0402324CE26001330F2B30
:1005780059D801229A400C6804EA0205AA42F5D12A
:100588004C6804F00304013C012C94D94A6802F039
:100598000302032A09D0C4685E000322B24024EA99
:1005A80002048A68B2402243C2604A6802F0030229
:1005B800022A94D004685E000322B24024EA0204AE
:1005C8004A6802F00302B240224302604A6812F409
:1005D800403FCBD000220192174A546C44F4804427
:1005E8005464526C02F480420192019A9C08A61C41
:1005F8000F4A52F8267003F0030296000F22B24009
:1006080027EA02070D4A90423FF47CAF02F5806268
:10061800904206D002F5806290423FF471AF072203
:1006280071E701226FE702B0F0BC7047704700BF66
:1006380000380140003C0140003802400000024000
:10064800436901EA030221EA030141EA02418161A7
:100658007047000090F83D30DBB2012B01D001203B
:100668007047022380F83D300268D36843F00103E5
:10067800D36003680E4A93420DD0A2F574429342A8
:1006880009D002F59A32934205D01A6842F0010265
:100698001A60002070479A6802F00702062A05D0FF
:1006A8001A6842F001021A60002070470020704763
:1006B80000000140704770477047704710B5044606
:1006C80003681A6912F0020F11D0DA6812F0020FEB
:1006D8000DD06FF002021A610123037703689B694A
:1006E80013F0030F70D0FFF7E6FF0023237723688A
:1006F8001A6912F0040F12D0DA6812F0040F0ED043
:100708006FF004021A610223237723689B6913F4AC
:10071800407F5FD02046FFF7CEFF00232377236872
:100728001A6912F0080F12D0DA6812F0080F0ED00A
:100738006FF008021A61042323772368DB6913F03A
:10074800030F4ED02046FFF7B6FF00232377236818
:100758001A6912F0100F12D0DA6812F0100F0ED0CA
:100768006FF010021A61082323772368DB6913F4FA
:10077800407F3DD02046FFF79EFF00232377236864
:100788001A6912F0010F03D0DA6812F0010F36D19E
:1007980023681A6912F0800F03D0DA6812F0800F0C
:1007A80034D123681A6912F0400F03D0DA6812F0C6
:1007B800400F32D123681A6912F0200F03D0DA688B
:1007C80012F0200F30D110BDFFF774FF2046FFF75D
:1007D80073FF8AE72046FFF76DFF2046FFF76CFF9F
:1007E8009BE72046FFF766FF2046FFF765FFACE76B
:1007F8002046FFF75FFF2046FFF75EFFBDE76FF07B
:1008080001021A612046FFF709FDC1E76FF0800277
:100818001A61204600F070F8C3E76FF040021A61D1
:100828002046FFF74AFFC5E76FF020021A6120460D
:1008380000F061F8C7E700000368184A904203D047
:10084800A2F57442904203D123F070034A6813431F
:10085800124A90420BD0A2F57442904207D002F59A
:100868009A32904203D002F50062904203D123F4F9
:100878004073CA68134323F080034A691343036033
:100888008B68C3620B688362044B984202D00123D1
:10089800436170470B690363F9E700BF000001403B
:1008A80038B310B5044690F83D30EBB1022384F814
:1008B8003D30211D2068FFF7BFFF012384F8463033
:1008C80084F83E3084F83F3084F8403084F8413072
:1008D80084F8423084F8433084F8443084F8453052
:1008E80084F83D30002010BD80F83C30FFF7FEFC56
:1008F800DCE701207047704770470000DFF834D00C
:100908000D480E490E4A002302E0D458C45004335F
:10091800C4188C42F9D30B4A0B4C002301E0136036
:100928000432A242FBD3FFF7FBFC00F011F8FFF7FB
:10093800B1FC704700800020000000200C0000205F
:10094800C00900080C00002074000020FEE7000029
:1009580070B50D4E0D4CA41BA4100025A54209D15D
:100968000B4E0C4C00F018F8A41BA4100025A5424F
:1009780005D170BD56F8253098470135EEE756F891
:10098800253098470135F2E7B8090008B80900088A
:10099800B8090008BC090008F8B500BFF8BC08BCD5
:1009A8009E467047F8B500BFF8BC08BC9E46704725
:0409B800ED01000845
:0409BC00C901000865
:0C09C0000024F400010000001000000002
:0400000508000905E1
:00000001FF
