:020000040800F2
:1000000000800020D10D0008210E0008210E0008FC
:10001000210E0008210E0008210E0008000000003B
:10002000000000000000000000000000210E000899
:10003000210E000800000000210E0008190500082C
:10004000210E0008210E0008210E0008210E0008D4
:10005000210E0008210E0008210E0008210E0008C4
:10006000210E0008210E0008210E0008210E0008B4
:10007000210E0008210E0008210E0008210E0008A4
:10008000210E0008210E0008210E000800000000CB
:10009000000000000000000000000000210E000829
:1000A000210E0008210E0008210E0008210E000874
:1000B000000000000000000000000000210E000809
:1000C000210E0008210E0008210E0008210E000854
:1000D000210E0008210E0008210E0008000000007B
:1000E000210E0008210E00080000000000000000A2
:1000F000000000000000000000000000210E0008C9
:100100000000000000000000210E000800000000B8
:100110000000000000000000210E000800000000A8
:10012000210E0008210E0008210E0008210E0008F3
:10013000210E000800000000000000000000000088
:1001400000000000000000000000000000000000AF
:10015000210E0008210E0008210E0008210E0008C3
:10016000000000000000000000000000000000008F
:10017000000000000000000000000000000000007F
:10018000210E0008210E0008000000000000000001
:1001900000000000210E0008000000000000000028
:1001A000000000000000000000000000000000004F
:1001B000000000000000000000000000210E000808
:0801C000210E0008210E0008C9
:1001C80010B5054C237833B9044B13B10448AFF389
:1001D80000800123237010BD1000002000000000E3
:1001E8006C0E000808B5034B1BB103490348AFF375
:1001F800008008BD00000000140000206C0E0008FC
:1002080053B94AB9002908BF00281CBF4FF0FF3175
:100218004FF0FF3000F072B9ADF1080C6DE904CE73
:1002280000F006F8DDF804E0DDE9022304B07047C9
:100238002DE9F047089E04468846002B4BD18A4298
:10024800154667D9B2FA82F24AB1C2F1200701FA1B
:1002580002F320FA07F7954047EA030894404FEA6B
:10026800154E230CB8FBFEF71FFA85FC0EFB17880A
:1002780043EA084307FB0CF1994209D9EB1807F147
:10028800FF3080F01B81994240F21881023F2B44D5
:100298005B1AA4B2B3FBFEF00EFB103344EA03442E
:1002A80000FB0CFCA44509D92C1900F1FF3380F0A0
:1002B8000781A44540F2048102382C4440EA0740F3
:1002C800A4EB0C0400271EB1D4400023C6E9004368
:1002D8003946BDE8F0878B4209D9002E00F0EB8043
:1002E8000027C6E9000138463946BDE8F087B3FA69
:1002F80083F7002F47D18B4202D3824200F2FA8063
:10030800841A61EB030301209846002EE0D0C6E969
:100318000048DDE702B9FFDEB2FA82F2002A40F0B7
:100328008F80491B4FEA154E1FFA85F80127B1FB4C
:10033800FEFC230C0EFB1C1143EA014308FB0CF1E5
:10034800994207D9EB180CF1FF3002D2994200F21A
:10035800CD808446591AA3B2B1FBFEF00EFB1014EF
:1003680043EA044408FB00F8A04507D92C1900F11A
:10037800FF3302D2A04500F2B6801846A4EB080469
:1003880040EA0C409FE7C7F1200CBB4022FA0CFE64
:100398004EEA030E01FA07F420FA0CF521FA0CF3E1
:1003A8004FEA1E482543B3FBF8F92C0C08FB193318
:1003B8001FFA8EFA44EA034309FB0AF49C4202FA44
:1003C80007F200FA07F10BD91EEB030309F1FF301E
:1003D80080F087809C4240F28480A9F1020973442E
:1003E8001B1BADB2B3FBF8F008FB103345EA03441E
:1003F80000FB0AFAA24508D91EEB040400F1FF33FA
:100408006BD2A24569D90238744440EA0940A0FB7E
:100418000289A4EB0A044C45C2464B4654D351D03A
:10042800002E69D0B1EB0A0564EB030404FA0CFC56
:10043800FD40FC404CEA0505C6E90054002747E7A3
:10044800C2F1200320FA03F7954001FA02F021FADD
:1004580003F34FEA154E3843010CB3FBFEF71FFABE
:1004680085F80EFB173341EA034107FB08F38B427B
:1004780004FA02F407D9691807F1FF3C2FD28B421E
:100488002DD9023F2944CB1A81B2B3FBFEF00EFBF3
:10049800103341EA034100FB08F38B4207D969187E
:1004A80000F1FF3C17D28B4215D902382944C91AEA
:1004B80040EA07473BE73746304609E70746E7E69D
:1004C8001846FBE64145ABD2B8EB020A69EB0E02CF
:1004D80001381346A4E76046E9E7184695E76746FA
:1004E800D1E781467CE702382C4447E7ACF1020C9F
:1004F8002B442FE7384608E73746E9E6704700BF40
:10050800034613F8012B002AFBD1181A013870474B
:1005180008B500F0FFF800F07AF908BDA0F1610312
:10052800DBB2192B01D82038C0B27047FEE70000B3
:1005380008B50948094B03604FF4E13343600023D1
:100548008360C360036183610C23436100F02FFB68
:1005580000B908BDFFF7EAFF2C0000200044004066
:1005680030B59BB000F0BCF8FFF7E2FF174B1C68F2
:100578002046FFF7C5FF4FF0FF3382B221461448EB
:1005880000F044FB00244FF0FF3301220DF1670116
:100598000F4800F0A8FB9DF867000D2808D0651CDF
:1005A800FFF7BCFF1AAB1C4404F8680C2C46EAE7BA
:1005B800621C1AAB1C440D2304F8683C4FF0FF334F
:1005C80092B26946024800F021FBFEE700000020D5
:1005D8002C00002008B5032000F0AEF80B4A536A3F
:1005E80043F4E0235362002211466FF00B0000F041
:1005F800B5F8002211466FF00A0000F0AFF80022AB
:1006080011466FF0090000F0A9F808BD00ED00E000
:1006180030B589B000240194184B1A6C42F40032AA
:100628001A641A6C02F400320192019A02941A6B4D
:1006380042F001021A631B6B03F001030293029B51
:1006480004230393022304930123059306940723A9
:1006580007930B4D03A9284600F0DEF808230393FF
:1006680003A9284600F0D8F8262000F0ABF8224667
:100678000F21262000F072F809B030BD0038024082
:1006880000000240034AD2F8883043F47003C2F8ED
:100698008830704700ED00E010B504460E4B18781E
:1006A8004FF47A73B3FBF0F30C4A1068B0FBF3F025
:1006B80000F096F868B90F2C01D901200AE0002251
:1006C80021464FF0FF3000F049F8034B5C600020F2
:1006D80000E0012010BD00BF080000200400002039
:1006E80008B50B4B1A6842F400721A601A6842F493
:1006F80080621A601A6842F480721A60032000F05F
:100708001BF80020FFF7C8FFFFF764FF002008BDB3
:10071800003C0240034A1168034B1B780B441360EA
:10072800704700BF7000002008000020014B1868C7
:10073800704700BF70000020074AD36823F4E063C5
:100748001B041B0C000200F4E060184340F0BF607B
:1007580040F40030D060704700ED00E030B4174B33
:10076800DB68C3F30223C3F10704042C28BF042465
:100778001D1D062D18D9033B4FF0FF3505FA04F46B
:1007880021EA0401994005FA03F322EA0303194315
:1007980000280BDB0901C9B200F1604000F5614097
:1007A80080F8001330BC70470023E5E700F00F0025
:1007B8000901C9B2024B1954F4E700BF00ED00E08B
:1007C80014ED00E0002807DB00F01F0240090123B8
:1007D8009340024A42F82030704700BF00E100E031
:1007E8000138B0F1807F0AD2064B5860064AF021E2
:1007F80082F823100020986007221A6070470120B1
:10080800704700BF10E000E000ED00E0704708B559
:10081800FFF7FCFF08BD000000230F2B00F2BE808D
:10082800F0B482B05DE086685F000324BC4026EA2D
:100838000406CC68BC4034438460466826EA020655
:100848004C68C4F300129A403243426056E0DC0818
:10085800083450F8247003F0070296000F22B240C3
:1008680027EA02070A69B2403A4340F8242059E0CF
:10087800022200E00022B2403A430234484E46F8D1
:100888002420484A1468EA4302EA04064F6817F429
:10089800803F01D045EA0406424C2660646802EABB
:1008A80004064F6817F4003F01D045EA04063D4CA2
:1008B8006660A46802EA04064F6817F4801F01D036
:1008C80045EA0406374CA660E46822404E6816F4F0
:1008D800001F01D045EA0402324CE26001330F2BBD
:1008E80059D801229A400C6804EA0205AA42F5D1B7
:1008F8004C6804F00304013C012C94D94A6802F0C6
:100908000302032A09D0C4685E000322B24024EA25
:1009180002048A68B2402243C2604A6802F00302B5
:10092800022A94D004685E000322B24024EA02043A
:100938004A6802F00302B240224302604A6812F495
:10094800403FCBD000220192174A546C44F48044B3
:100958005464526C02F480420192019A9C08A61CCD
:100968000F4A52F8267003F0030296000F22B24095
:1009780027EA02070D4A90423FF47CAF02F58062F5
:10098800904206D002F5806290423FF471AF072290
:1009980071E701226FE702B0F0BC7047704700BFF3
:1009A80000380140003C014000380240000002408D
:1009B800014B1868704700BF0400002008B5FFF716
:1009C800F7FF044B9B68C3F38223034AD35CD840E8
:1009D80008BD00BF00380240940E000808B5FFF7B4
:1009E800E7FF044B9B68C3F34233034AD35CD84008
:1009F80008BD00BF00380240940E00082DE9F04BF6
:100A080004460268136923F44053C1680B43136119
:100A180083680269134342691343C2691A43016830
:100A2800CB6823F4164323F00C031343CB6002680E
:100A3800536923F4407381690B43536103683A4A4D
:100A4800934206D002F58062934202D0FFF7B6FFC8
:100A580001E0FFF7C3FFE369B3F5004F30D04FF073
:100A68000009061849EB090716EB000B47EB090CC0
:100A78004FEACC0343EA5B734FEACB0293469C46AA
:100A880063689A009B0F10EB0B0049EB0C01FFF712
:100A9800B7FB264DA5FB00325109642202FB110267
:100AA80013013233A5FB03235B0903F0F00202EBC9
:100AB800011203F00F03216813448B60BDE8F08B2B
:100AC80083464FF0000C06184CEB0C0716EB000899
:100AD80047EB0C094FEAC90343EA58734FEAC802C7
:100AE8009046994662680021921841EB01031BEB7E
:100AF80008004CEB0901FFF783FB0C4DA5FB003206
:100B08005109642202FB1102D3003233A5FB0323EF
:100B18005B095A0002F4F87202EB011203F00703B2
:100B2800216813448B60C9E7001001401F85EB5111
:100B38002DE9F04104460F4616469846069D23685F
:100B48001B6837EA03030CBF01230023B3422BD1F0
:100B5800B5F1FF3FF3D02DB1FFF7E8FDA0EB08009A
:100B6800A842ECD9226802F10C0353E8003F23F4B1
:100B7800D0730C3242E800310029F3D1226802F127
:100B8800140353E8003F23F00103143242E8003114
:100B98000029F3D1202384F83D3084F83E30002327
:100BA80084F83C30032000E00020BDE8F08158B311
:100BB80010B5044690F83D300BB3242384F83D303B
:100BC8002268D36823F40053D3602046FFF716FF4A
:100BD8002268136923F4904313612268536923F050
:100BE8002A0353612268D36843F40053D36000207A
:100BF8002064202384F83D3084F83E3010BD80F80E
:100C08003C30FFF705FDD8E7012070472DE9F0419A
:100C180082B01E4690F83D30DBB2202B54D10446FA
:100C28000D469046002954D0002A54D090F83C3004
:100C3800012B52D0012380F83C3000230364212388
:100C480080F83D30FFF772FD0746A4F82480A4F829
:100C58002680A368B3F5805F05D04FF00008002315
:100C680084F83C3011E0236913B14FF00008F6E72F
:100C7800A8460025F3E738F8023B2268C3F30803C7
:100C88005360E38C013B9BB2E384E38C9BB273B16A
:100C980000963B46002280212046FFF749FFF0B925
:100CA800002DE8D015F8012B23685A60E9E7009673
:100CB8003B46002240212046FFF73AFF034680B911
:100CC800202284F83D2000E00223184602B0BDE847
:100CD800F0810123F9E70123F7E70223F5E703236E
:100CE800F3E70323F1E72DE9F04182B01E4690F8BF
:100CF8003E30DBB2202B5BD104460D4690460029DE
:100D08005AD0002A5AD090F83C30012B58D00123F1
:100D180080F83C3000230364222280F83E200363DD
:100D2800FFF704FD0746A4F82C80A4F82E80A368DA
:100D3800B3F5805F05D04FF00008002384F83C30FD
:100D480016E0236913B14FF00008F6E7A84600251E
:100D5800F3E723685B68C3F3080328F8023B03E062
:100D680023685B682B700135E38D013B9BB2E385FB
:100D7800E38D9BB2BBB100963B4600222021204662
:100D8800FFF7D6FEF0B9002DE3D0A368B3F5805F76
:100D9800E6D013B92369002BE2D023685B6803F01F
:100DA8007F032B70DFE7202384F83E30002000E02B
:100DB800022002B0BDE8F0810120FAE70120F8E73F
:100DC8000220F6E70320F4E7DFF834D00D480E4997
:100DD8000E4A002302E0D458C4500433C4188C428D
:100DE800F9D30B4A0B4C002301E013600432A242F2
:100DF800FBD3FFF747FC00F011F8FFF7B1FB704792
:100E0800008000200000002010000020D00E000804
:100E18001000002074000020FEE7000070B50D4EA1
:100E28000D4CA41BA4100025A54209D10B4E0C4C57
:100E380000F018F8A41BA4100025A54205D170BD28
:100E480056F8253098470135EEE756F8253098478B
:100E58000135F2E7C80E0008C80E0008C80E0008E1
:100E6800CC0E0008F8B500BFF8BC08BC9E46704719
:0C0E7800F8B500BFF8BC08BC9E467047EF
:100E84000000000000000000010203040607080936
:100E940000000000010203044C612061706C69636E
:100EA4006163696F6E206573746120656A6563753B
:0C0EB40074616E646F73650D0A0000002D
:080EC00078F3FF7F0100000040
:040EC800ED01000830
:040ECC00C901000850
:100ED0009C0E00080024F400010000001000000037
:0400000508000DD111
:00000001FF
