:020000040800F2
:10000000000002209D200008ED200008ED200008DF
:10001000ED200008ED200008ED20000800000000A1
:10002000000000000000000000000000ED200008BB
:10003000ED20000800000000ED200008C1050008C8
:10004000ED200008ED200008ED200008ED2000085C
:10005000ED200008ED200008ED200008ED2000084C
:10006000ED200008ED200008ED200008ED2000083C
:10007000ED200008ED200008ED200008ED2000082C
:10008000ED200008ED200008ED200008CD05000857
:10009000DD050008ED050008FD050008ED2000085D
:1000A000ED200008ED200008ED200008ED200008FC
:1000B000ED200008ED200008ED200008ED200008EC
:1000C000ED200008ED200008ED200008ED200008DC
:1000D000ED200008ED200008ED200008ED200008CC
:1000E000ED200008ED200008ED200008ED200008BC
:1000F000ED200008ED200008ED200008ED200008AC
:10010000ED200008ED200008ED200008ED2000089B
:10011000ED200008ED200008ED200008ED2000088B
:10012000ED200008ED200008ED200008ED2000087B
:10013000ED2000080000000000000000ED20000895
:10014000ED200008ED200008ED200008ED2000085B
:10015000ED200008ED200008ED200008ED2000084B
:10016000ED200008ED200008ED200008ED2000083B
:10017000ED200008ED200008ED2000080000000040
:1001800000000000ED20000800000000000000005A
:10019000ED2000080000000000000000ED20000835
:1001A000000000000000000000000000ED2000083A
:1001B000ED200008ED200008ED200008ED200008EB
:0401C000ED20000826
:1001D00010B5054C237833B9044B13B10448AFF381
:1001E00000800123237010BD70000020000000007B
:1001F0005029000808B5034B1BB103490348AFF36E
:10020000008008BD00000000740000205029000894
:1002100053B94AB9002908BF00281CBF4FF0FF316D
:100220004FF0FF3000F072B9ADF1080C6DE904CE6B
:1002300000F006F8DDF804E0DDE9022304B07047C1
:100240002DE9F047089E04468846002B4BD18A4290
:10025000154667D9B2FA82F24AB1C2F1200701FA13
:1002600002F320FA07F7954047EA030894404FEA63
:10027000154E230CB8FBFEF71FFA85FC0EFB178802
:1002800043EA084307FB0CF1994209D9EB1807F13F
:10029000FF3080F01B81994240F21881023F2B44CD
:1002A0005B1AA4B2B3FBFEF00EFB103344EA034426
:1002B00000FB0CFCA44509D92C1900F1FF3380F098
:1002C0000781A44540F2048102382C4440EA0740EB
:1002D000A4EB0C0400271EB1D4400023C6E9004360
:1002E0003946BDE8F0878B4209D9002E00F0EB803B
:1002F0000027C6E9000138463946BDE8F087B3FA61
:1003000083F7002F47D18B4202D3824200F2FA805A
:10031000841A61EB030301209846002EE0D0C6E961
:100320000048DDE702B9FFDEB2FA82F2002A40F0AF
:100330008F80491B4FEA154E1FFA85F80127B1FB44
:10034000FEFC230C0EFB1C1143EA014308FB0CF1DD
:10035000994207D9EB180CF1FF3002D2994200F212
:10036000CD808446591AA3B2B1FBFEF00EFB1014E7
:1003700043EA044408FB00F8A04507D92C1900F112
:10038000FF3302D2A04500F2B6801846A4EB080461
:1003900040EA0C409FE7C7F1200CBB4022FA0CFE5C
:1003A0004EEA030E01FA07F420FA0CF521FA0CF3D9
:1003B0004FEA1E482543B3FBF8F92C0C08FB193310
:1003C0001FFA8EFA44EA034309FB0AF49C4202FA3C
:1003D00007F200FA07F10BD91EEB030309F1FF3016
:1003E00080F087809C4240F28480A9F10209734426
:1003F0001B1BADB2B3FBF8F008FB103345EA034416
:1004000000FB0AFAA24508D91EEB040400F1FF33F1
:100410006BD2A24569D90238744440EA0940A0FB76
:100420000289A4EB0A044C45C2464B4654D351D032
:10043000002E69D0B1EB0A0564EB030404FA0CFC4E
:10044000FD40FC404CEA0505C6E90054002747E79B
:10045000C2F1200320FA03F7954001FA02F021FAD5
:1004600003F34FEA154E3843010CB3FBFEF71FFAB6
:1004700085F80EFB173341EA034107FB08F38B4273
:1004800004FA02F407D9691807F1FF3C2FD28B4216
:100490002DD9023F2944CB1A81B2B3FBFEF00EFBEB
:1004A000103341EA034100FB08F38B4207D9691876
:1004B00000F1FF3C17D28B4215D902382944C91AE2
:1004C00040EA07473BE73746304609E70746E7E695
:1004D0001846FBE64145ABD2B8EB020A69EB0E02C7
:1004E00001381346A4E76046E9E7184695E76746F2
:1004F000D1E781467CE702382C4447E7ACF1020C97
:100500002B442FE7384608E73746E9E6704700BF37
:10051000034613F8012B002AFBD1181A0138704743
:1005200001F0FF01102A2BDB10F0070F08D010F8A4
:10053000013B013A8B422DD010F0070F42B3F6D1A8
:10054000F0B441EA012141EA014122F007047FF0C1
:1005500000070023F0E80256083C85EA010586EA18
:10056000010685FA47F5A3FA87F586FA47F6A5FA54
:1005700087F68EB9EED1F0BC01F0FF0102F0070260
:1005800032B110F8013B013A83EA010313B1F8D10B
:100590000020704701387047002D06BF35460338EC
:1005A000073815F0010F07D1013015F4807F02BF25
:1005B000013015F4C03F0130F0BC0138704700BF76
:1005C00008B500F0F7FA00F054FF08BD08B502487E
:1005D00000F0A8FD08BD00BFE000002008B50248FB
:1005E00000F0A0FD08BD00BFE000002008B50248F3
:1005F00000F098FD08BD00BFE000002008B50248EB
:1006000000F090FD08BD00BFE000002000B587B0FD
:10061000002100910A4B1A6B42F001021A631B6B16
:1006200003F001030093009B202301930123029315
:10063000039101A9034800F021FF07B05DF804FB16
:100640000038024000000240FEE7000008B50948FB
:10065000094B03604FF4E133436000238360C360C0
:10066000036183610C23436101F07BFC00B908BD89
:10067000FFF7EAFF9C0000200044004010B592B054
:10068000072305934FF480330693012307930893C0
:1006900002230B934FF480030C93542833D0782813
:1006A00043D032282DD104230D9332230E930223FD
:1006B0000F93109311930F22009201930023029342
:1006C0004FF4805203920493012405A801F052F9DB
:1006D00000283FD12146684600F0B4FF00283BD1F6
:1006E00001F060F81D4BA3FB0030800900F09AFE7A
:1006F000042000F0ADFE002211464FF0FF3000F064
:100700004FFE12B010BD04230D9354230E93022408
:100710000F94109411940F230093019400230293DB
:100720004FF4805203920493CFE704230D93782370
:100730000E9302230F93109311930F2200920193B3
:10074000002302934FF4A05303934FF48053049378
:100750000324BAE7FFF778FFFFF776FFD34D621067
:1007600008B50D480D4B03604FF0804383600023B4
:1007700043760122C2768376037703764377052298
:100780004260C3604FF4E0220261436100F024FA4A
:1007900000B908BDFFF758FFE000002000640040EA
:1007A00000B58BB00C4B93E8030001908DF8081056
:1007B0000523089340F25D63049300230693079397
:1007C00003AB01AA04A9054800F070FB10B90BB0F7
:1007D0005DF804FBFFF738FF68290008E0000020FF
:1007E00000B597B00021104800F06FFC0028F9D048
:1007F0000DAB0FAA00210C4800F0CDFB88B90DAA63
:100800000A49684601F09EFC6846FFF781FE4FF0FA
:10081000FF3382B26946064801F0D2FB17B05DF89B
:1008200004FBFFF711FF00BFE0000020882900084B
:100830009C00002000B58BB0012208920023059394
:1008400004930093019302930393069307926946DE
:10085000044800F067FA10B90BB05DF804FBFFF72D
:10086000F3FE00BFE000002008B500F089F9322057
:10087000FFF704FFFFF7CAFEFFF7E8FEFFF770FF80
:100880000A4800F0E5FA68B940F20341074800F071
:100890002FFC48B9FFF784FFFFF7A2FFFFF7CAFF5D
:1008A000002008BDFFF7D0FEFFF7CEFEE0000020DD
:1008B00030B58FB001AC094D0FCD0FC495E80700DE
:1008C00003C4227001A8FFF723FE4FF0FF3382B26A
:1008D00001A9034801F074FB0FB030BDA029000846
:1008E0009C00002030B58FB001AC094D0FCD0FC476
:1008F00095E8070003C4227001A8FFF709FE4FF036
:10090000FF3382B201A9034801F05AFB0FB030BD9A
:10091000BC2900089C00002030B58FB001AC094D07
:100920000FCD0FC495E8070003C4227001A8FFF79C
:10093000EFFD4FF0FF3382B201A9034801F040FB05
:100940000FB030BDD82900089C00002000B597B03A
:100950000DAB0FAA00210C4800F01DFB88B90DAAB1
:100960000A49684601F0EEFB6846FFF7D1FD4FF0FB
:10097000FF3382B26946064801F022FB17B05DF8EA
:1009800004FBFFF761FE00BFE0000020882900089B
:100990009C00002030B58FB001AC0A4D0FCD0FC4C4
:1009A00095E8030044F8040B218001A8FFF7B0FD8F
:1009B0004FF0FF3382B201A9034801F001FB0FB0F1
:1009C00030BD00BFF42900089C00002008B50320BA
:1009D00000F0D4FC0B4A536A43F4E0235362002234
:1009E00011466FF00B0000F0DBFC002211466FF0A7
:1009F0000A0000F0D5FC002211466FF0090000F05B
:100A0000CFFC08BD00ED00E030B589B000240194B2
:100A1000184B1A6C42F400321A641A6C02F4003259
:100A20000192019A02941A6B42F001021A631B6B45
:100A300003F001030293029B042303930223049314
:100A4000012305930694072307930B4D03A928461A
:100A500000F014FD0823039303A9284600F00EFDBF
:100A6000262000F0D1FC22460F21262000F098FC21
:100A700009B030BD003802400000024010B586B019
:100A80004FF4C053019302230293002403940323E1
:100A900004930923059301A9124800F0EFFC2246B4
:100AA0000F21132000F07CFC22460F21142000F0BF
:100AB00077FC22460F21152000F072FC22460F2100
:100AC000162000F06DFC132000F09EFC142000F0B6
:100AD0009BFC152000F098FC162000F095FC06B059
:100AE00010BD00BF0000024008B503460B4A126863
:100AF00042B10A4A106803446A46934206D8074A3C
:100B0000136008BD054A06491160F2E701F0F0FAEA
:100B10000C2303604FF0FF30F3E700BF8C00002090
:100B200010010020034AD2F8883043F47003C2F861
:100B30008830704700ED00E010B504460E4B187881
:100B40004FF47A73B3FBF0F30C4A1068B0FBF3F088
:100B500000F068FC68B90F2C01D901200AE00022DE
:100B600021464FF0FF3000F01BFC034B5C6000207F
:100B700000E0012010BD00BF0400002000000020A4
:100B800008B50B4B1A6842F400721A601A6842F4F6
:100B900080621A601A6842F480721A60032000F0C2
:100BA000EDFB0020FFF7C8FFFFF710FF002008BD96
:100BB000003C0240034A1168034B1B780B4413604E
:100BC000704700BF0801002004000020014B186896
:100BD000704700BF08010020002800F0A18038B550
:100BE000044690F82030D3B12268136843F0010323
:100BF0001360FFF7EBFF054623685A6812F0010FF8
:100C000010D1FFF7E3FF401B0A28F5D9636A43F4CC
:100C100000336362052384F82030012038BDFFF7DC
:100C20002DFFE1E71A6822F002021A60FFF7CEFFFB
:100C3000054623685A6812F0020F0DD0FFF7C6FF71
:100C4000401B0A28F5D9636A43F400336362052325
:100C500084F820300120E1E7227E012A3DD01A6885
:100C600022F080021A60637E012B3BD02268136859
:100C700023F040031360A37E012B39D02268136850
:100C800023F020031360E37E012B37D02268136822
:100C900043F010031360237F012B35D022681368C3
:100CA00023F008031360637F012B33D0226813689D
:100CB00023F004031360A368E2681343226913431B
:100CC000626913436268013A21681343CB610020D3
:100CD0006062012384F82030A0E71A6842F08002A5
:100CE0001A60C0E72268136843F040031360C2E74C
:100CF0002268136843F020031360C4E72268136876
:100D000023F010031360C6E72268136843F008035A
:100D10001360C8E72268136843F004031360CAE74E
:100D20000120704790F82030013BDBB2012B05D940
:100D3000436A43F4802343620120704770B4434BFD
:100D4000D3F8002242F00102C3F80022D3F80022B7
:100D500022F47C52C3F80022D3F80022486A42EA07
:100D60000022C3F800224A6902F01F02012000FAA3
:100D700002F2D3F81C42D0430440C3F81C42CB69B2
:100D8000B3B9324BD3F80C420440C3F80C42CE68DE
:100D90008D884C6945EA0645483443F834508E68DE
:100DA0000C884D6944EA0644483503EBC5035C6092
:100DB000CB69012B1DD08B69002B32D1234CD4F889
:100DC00004320340C4F804320B698BBB1F4BD3F8C9
:100DD00014422040C3F814020B6A012B2FD01B4A87
:100DE000D2F8003223F00103C2F80032002070BCB8
:100DF0007047164BD3F80C421443C3F80C420E68EC
:100E00008D884C6945EA0645483443F834508E686D
:100E10008C894D6944EA0644483503EBC5035C60A0
:100E2000C9E70A4CD4F804321343C4F80432CBE7C0
:100E30000648D0F814321343C0F81432CCE7034903
:100E4000D1F81C321A43C1F81C22C8E700640040E4
:100E500038B590F82030DBB2012B05D0436A43F45B
:100E600000234362012038BD0446022380F820306D
:100E70000268136823F001031360FFF7A7FE05461D
:100E800023685B6813F0010F0DD0FFF79FFE401B36
:100E90000A28F5D9636A43F400336362052384F8B2
:100EA00020300120DFE700206062DCE770B490F8BA
:100EB00020400568AD68013CE4B2012C06D9436AC4
:100EC00043F480234362012070BC704715F0E05F5B
:100ED0005BD0C5F30165022D3ED80124AC401C60F7
:100EE0008B68002B3ED10E68CB68046843EA4656F7
:100EF00005F118031B01E65003680C6905F118069B
:100F000003EB06135C600B7D012B36D0D17993790E
:100F10001B0443EA0163517943EA01231479016810
:100F200023432C012144C1F88C31D17893781B04E0
:100F300043EA0163517843EA0123117802680B43C5
:100F40002244C2F88831026818352D01535943F004
:100F5000010353510020B7E7436A43F4000343629F
:100F60000120B1E74C6843EAC403CC680668234318
:100F700005F1180424013351BEE7036803EB06139F
:100F8000596841F480715960C0E7436A43F4001323
:100F90004362012098E730B490F82040013CE4B26D
:100FA000012C06D9436A43F480234362012030BCFC
:100FB000704700296FD10468E46814F0030F64D00F
:100FC000056801F11B0424012C5904F00404946009
:100FD000002C6BD1056801F11B0424012C59640D10
:100FE0001460056801F11B0424012D5905F0020568
:100FF000D560056825446D6805F00F051561056825
:1010000025446D68C5F30725956105682C4464681F
:10101000240C546104680A011444D4F8B8411C70CB
:1010200004681444D4F8B841C4F307245C7004681D
:101030001444D4F8B841C4F307449C7004681444C1
:10104000D4F8B841240EDC7004681444D4F8BC41D0
:101050001C7104681444D4F8BC41C4F307245C71C7
:1010600004681444D4F8BC41C4F307449C71046878
:101070002244D2F8BC21120EDA71F9B90268D368A1
:1010800043F02003D360002091E7436A43F4001348
:10109000436201208BE70468246914F0030F8FD1A9
:1010A000436A43F400134362012080E7056801F1BD
:1010B0001B0424012C59E408546092E70268136968
:1010C00043F020031361002071E790F82030013BCA
:1010D000DBB2012B01D90020704721B103681869E8
:1010E00000F0030070470368D86800F00300704701
:1010F00090F82030013BDBB2012B05D9436A43F461
:10110000802343620120704702685369194351618B
:1011100000207047704770477047704770477047AE
:10112000704770472DE9F84F054603685C695F68B2
:101130009E68D3F80C90D3F81080D3F818A014F060
:10114000010F5AD016F0010F17D001229A6016F045
:10115000020F08D116F0040F30D116F0080F07D097
:101160004FF4805B0BE0FFF7A3FB4FF0000B06E0B2
:10117000FFF7D0FF4FF0000B01E04FF0000B16F42B
:10118000807F0BD02B684FF480729A6016F4007F3A
:1011900017D116F4806F18D04BF4005B16F4803F23
:1011A0002DD02B684FF480329A6016F4003F16D190
:1011B00016F4802F17D04BF4004B20E04FF4006B57
:1011C000DDE72846FFF78EFBE8E716F4006F02D054
:1011D0004BF4804BE2E72846FFF79DFFDEE7284609
:1011E000FFF79AFB0BE016F4002F02D04BF4803B84
:1011F00005E02846FFF790FF01E04FF0000B14F0E8
:10120000080F07D019F0100F04D04BF4007B2B68A7
:101210001022DA6014F0040F02D019F0080F60D128
:1012200014F0020F04D02B68DB6813F0030F5FD1BA
:1012300014F0400F07D018F0100F04D04BF4806B5F
:101240002B6810221A6114F0200F02D018F0080F3A
:1012500052D114F0100F04D02B681B6913F0030F48
:1012600051D114F4003F02D017F0100F4FD114F4F5
:10127000803F02D017F0080F50D114F4004F67D010
:1012800017F0040F61D014F4807F04D01AF0010F1E
:1012900001D04BF0010B14F4007F04D01AF0020FC0
:1012A00001D04BF0020B14F4806F04D01AF0040F3D
:1012B00001D04BF0040B14F4006F46D01AF0700A02
:1012C00043D0BAF1300F48D02FD9BAF1500F47D0E0
:1012D000BAF1600F47D0BAF1400F31D14BF0400B5B
:1012E0002EE02B680822DA602846FFF716FF97E702
:1012F0002846FFF72BFB9BE72B6808221A6128463C
:10130000FFF70DFFA5E72846FFF708FFA9E72B68C1
:1013100010225A602846FFF703FFA8E72B6808222F
:101320005A602846FFF7FDFEA7E7BAF1100F05D077
:10133000BAF1200F04D14BF0100B01E04BF0080B79
:101340002A68936923F0700393612B6804225A6022
:10135000BBF1000F0AD1BDE8F88F4BF0200BEFE78F
:101360004BF0800BECE74BF4807BE9E76B6A43EAD8
:101370000B036B622846FFF70DFBECE7074AD368C7
:1013800023F4E0631B041B0C000200F4E06018432C
:1013900040F0BF6040F40030D060704700ED00E0E6
:1013A00030B4174BDB68C3F30223C3F10704042CEA
:1013B00028BF04241D1D062D18D9033B4FF0FF350F
:1013C00005FA04F421EA0401994005FA03F322EA3C
:1013D0000303194300280BDB0901C9B200F1604087
:1013E00000F5614080F8001330BC70470023E5E74A
:1013F00000F00F000901C9B2024B1954F4E700BF15
:1014000000ED00E014ED00E0002807DB00F01F0213
:10141000400901239340024A42F82030704700BF40
:1014200000E100E00138B0F1807F0AD2064B58603D
:10143000064AF02182F823100020986007221A60E3
:1014400070470120704700BF10E000E000ED00E0B1
:10145000042805D0054A136823F00403136070477D
:10146000024A136843F004031360704710E000E081
:10147000704708B5FFF7FCFF08BD000000230F2BE5
:1014800000F2D680F0B482B05DE086685F0003248D
:10149000BC4026EA0406CC68BC40344384604668FD
:1014A00026EA02064C68C4F300129A4032434260B6
:1014B00056E0DC08083450F8247003F00702960068
:1014C0000F22B24027EA02070A69B2403A4340F8C5
:1014D000242059E0062200E00022B2403A430234C0
:1014E000544E46F82420544A1468EA4302EA04069B
:1014F0004F6817F4803F01D045EA04064E4C266041
:10150000646802EA04064F6817F4003F01D045EA18
:101510000406494C6660A46802EA04064F6817F4A2
:10152000801F01D045EA0406434CA660E4682240CF
:101530004E6816F4001F01D045EA04023E4CE260FA
:1015400001330F2B71D801229A400C6804EA02057E
:10155000AA42F5D14C6804F00304013C012C94D953
:101560004A6802F00302032A09D0C4685E0003221D
:10157000B24024EA02048A68B2402243C2604A6848
:1015800002F00302022A94D004685E000322B240F3
:1015900024EA02044A6802F00302B24022430260D5
:1015A0004A6812F4403FCBD000220192234A546C87
:1015B00044F480445464526C02F480420192019AD3
:1015C0009C08A61C1B4A52F8267003F003029600E2
:1015D0000F22B24027EA0207194A90423FF47CAF3B
:1015E00002F58062904216D002F58062904214D0DB
:1015F00002F58062904212D002F58062904210D0D3
:1016000002F5806290420ED002F5806290423FF473
:1016100061AF072261E701225FE702225DE7032253
:101620005BE7042259E7052257E702B0F0BC704798
:10163000704700BF00380140003C014000380240C4
:1016400000000240002800F09E8070B50446504B18
:101650001B6803F00F038B4209D2CBB24C4A1370C4
:10166000136803F00F038B4201D0012070BD236883
:1016700013F0020F17D013F0040F04D0454A9368FB
:1016800043F4E0539360236813F0080F04D0414AF9
:10169000936843F4604393603E4A936823F0F003F9
:1016A000A068034393600D46236813F0010F32D006
:1016B0006368012B21D09A1E012A25D9354A126868
:1016C00012F0020F61D033498A6822F003021343FB
:1016D0008B60FFF77BFA06462E4B9B6803F00C03EA
:1016E0006268B3EB820F16D0FFF770FA801B41F2ED
:1016F00088339842F0D90320B8E7264A126812F4DA
:10170000003FE0D10120B1E7224A126812F0007FC9
:10171000D9D10120AAE71E4B1B6803F00F03AB428F
:1017200009D9EAB21A4B1A701B6803F00F03AB42D7
:1017300001D001209AE7236813F0040F06D0154A60
:10174000936823F4E053E1680B439360236813F03C
:10175000080F07D00F4A936823F46043216943EAD6
:10176000C103936000F044F80A4B9B68C3F3031372
:10177000094AD35CD840094B1860094B1868FFF739
:10178000DBF9002072E70120704701206EE700BFFF
:10179000003C024000380240702900080000002090
:1017A00008000020014B1868704700BF00000020AF
:1017B00008B5FFF7F7FF044B9B68C3F38223034A86
:1017C000D35CD84008BD00BF003802408029000823
:1017D00008B5FFF7E7FF044B9B68C3F34233034AA6
:1017E000D35CD84008BD00BF003802408029000803
:1017F0002DE9F04B5C4B9B6803F00C03082B07D0E2
:101800000C2B5BD0042B00F0AD805848BDE8F08B6A
:10181000554B5A6802F03F025B6813F4800F2AD0E0
:10182000514B5B68C3F388131E4600275C010025FB
:10183000E41A65EB0705A90141EA9461A001001BC8
:1018400061EB0501CB0043EA5073C400A01943EBE0
:1018500007014B0243EAD0534402204619460023B5
:10186000FEF7D6FC404B5B68C3F3014301335B00DA
:10187000B0FBF3F0CAE73C4B5B68C3F388131E462A
:1018800000275C010025E41A65EB0705A90141EA80
:101890009461A001001B61EB0501CB0043EA50738A
:1018A000C400A01943EB07018B0243EA9053840262
:1018B000204619460023FEF7ABFCD3E72A4B5A68B3
:1018C00002F03F025B6813F4800F28D0264B5B6860
:1018D000C3F388131E4600275C010025E41A65EB5C
:1018E0000705A90141EA9461A001001B61EB050114
:1018F000CB0043EA5073C400A01943EB07014B022D
:1019000043EAD0534402204619460023FEF780FCE8
:10191000154B5B68C3F30273B0FBF3F076E7124B31
:101920005B68C3F388131E4600275C010025E41A98
:1019300065EB0705A90141EA9461A001001B61EB79
:101940000501CB0043EA5073C400A01943EB070123
:101950008B0243EA90538402204619460023FEF787
:1019600057FCD5E7024851E7003802400024F40054
:1019700000127A00002800F00B8270B582B0044695
:10198000036813F0010F41D0A54B9B6803F00C03D3
:10199000042B32D0A24B9B6803F00C03082B27D0FA
:1019A0009F4B9B6803F00C030C2B59D06368B3F575
:1019B000803F5BD0B3F5A02F5ED0994B1A6822F41C
:1019C00080321A601A6822F480221A606368002B41
:1019D0005CD0FFF7FBF80546914B1B6813F4003F02
:1019E00014D1FFF7F3F8401B6428F5D90320D4E1A4
:1019F0008B4B5B6813F4800FD2D0894B1B6813F4B8
:101A0000003F03D06368002B00F0C481236813F00B
:101A1000020F67D0824B9B6813F00C0F4AD0804BAB
:101A20009B6803F00C03082B3FD07D4B9B6803F0B1
:101A30000C030C2B48D0E368002B74D0794B0122A7
:101A40001A60FFF7C3F80546754B1B6813F0020FC9
:101A500060D1FFF7BBF8401B0228F5D903209CE1B9
:101A60006F4B5B6813F4800FA0D0C6E76C4A136815
:101A700043F480331360A9E7694B1A6842F480226B
:101A80001A601A6842F480321A609FE7FFF79EF8E6
:101A90000546634B1B6813F4003FB7D0FFF796F879
:101AA000401B6428F5D9032077E15D4B5B6813F494
:101AB000800FBAD15A4B1B6813F0020F0AD0E368AB
:101AC000012B07D0012068E1554B5B6813F4800FB0
:101AD000B1D1EFE7524A136823F0F803216943EAD2
:101AE000C1031360236813F0080F40D0636963B328
:101AF0004D4B01221A60FFF769F80546484B5B6FB2
:101B000013F0020F33D1FFF761F8401B0228F5D91B
:101B1000032042E1424A136823F0F803216943EAB3
:101B2000C1031360DEE73F4B00221A60FFF74EF857
:101B300005463B4B1B6813F0020FD3D0FFF746F866
:101B4000401B0228F5D9032027E1374B00221A60F9
:101B5000FFF73CF80546324B5B6F13F0020F06D0DF
:101B6000FFF734F8401B0228F5D9032015E123685C
:101B700013F0040F78D02A4B1B6C13F0805F33D125
:101B800000230193264B1A6C42F080521A641B6C9E
:101B900003F080530193019B0125244B1B6813F430
:101BA000807F23D0A368012B34D0052B40D01C4B61
:101BB0001A6F22F001021A671A6F22F004021A67E4
:101BC000A368002B3ED0FFF701F80646144B1B6FAD
:101BD00013F0020F47D1FEF7F9FF801B41F2883363
:101BE0009842F3D90320D8E00025D6E70F4A1368BE
:101BF00043F480731360FEF7E9FF06460B4B1B6846
:101C000013F4807FCED1FEF7E1FF801B0228F5D9C7
:101C10000320C2E0024A136F43F001031367CFE7CA
:101C20000038024000004742800E474200700040EA
:101C30005D4B1A6F42F004021A671A6F42F00102FC
:101C40001A67BDE7FEF7C2FF0646574B1B6F13F03E
:101C5000020F08D0FEF7BAFF801B41F2883398428A
:101C6000F3D9032099E0EDB9A369002B00F094802B
:101C70004D4A926802F00C02082A54D0022B17D069
:101C80004A4B00221A60FEF7A1FF0446464B1B6830
:101C900013F0007F45D0FEF799FF001B0228F5D90D
:101CA00003207AE0404A136C23F080531364DBE78F
:101CB0003E4B00221A60FEF789FF05463A4B1B682F
:101CC00013F0007F06D0FEF781FF401B0228F5D9F4
:101CD000032062E0E369226A1343626A43EA8213E3
:101CE000A26A5208013A43EA0243E26A43EA026303
:101CF000226B43EA02732C4A53602C4B01221A6078
:101D0000FEF764FF0446284B1B6813F0007F06D1E2
:101D1000FEF75CFF001B0228F5D903203DE0002000
:101D20003BE0002039E0012B39D01F4B5B6803F406
:101D30008001E269914201D001202EE003F03F02D0
:101D4000216A8A4201D0012027E0616A47F6C07209
:101D50001A40B2EB811F01D001201EE003F4403194
:101D6000A26A5208013AB1EB024F01D0012014E0FF
:101D700003F07062E16AB2EB016F01D001200CE068
:101D800003F0E043226BB3EB027F0AD0012004E0B2
:101D900001207047012000E0002002B070BD01204A
:101DA000FBE70020F9E700BF00380240600047422F
:101DB0002DE9F04B04460268136923F44053C168CF
:101DC0000B43136183680269134342691343C26979
:101DD0001A430168CB6823F4164323F00C03134322
:101DE000CB600268536923F4407381690B435361EC
:101DF00003683A4A934206D002F58062934202D0C9
:101E0000FFF7D6FC01E0FFF7E3FCE369B3F5004F11
:101E100030D04FF00009061849EB090716EB000B0C
:101E200047EB090C4FEACC0343EA5B734FEACB0262
:101E300093469C4663689A009B0F10EB0B0049EB9E
:101E40000C01FEF7E5F9264DA5FB0032510964228D
:101E500002FB110213013233A5FB03235B0903F0DC
:101E6000F00202EB011203F00F03216813448B60B0
:101E7000BDE8F08B83464FF0000C06184CEB0C07C6
:101E800016EB000847EB0C094FEAC90343EA587305
:101E90004FEAC8029046994662680021921841EBC9
:101EA00001031BEB08004CEB0901FEF7B1F90C4DE7
:101EB000A5FB00325109642202FB1102D300323328
:101EC000A5FB03235B095A0002F4F87202EB01122E
:101ED00003F00703216813448B60C9E70010014039
:101EE0001F85EB512DE9F04104460F4616469846F2
:101EF000069D23681B6837EA03030CBF01230023F8
:101F0000B3422BD1B5F1FF3FF3D02DB1FEF75EFE0A
:101F1000A0EB0800A842ECD9226802F10C0353E8B8
:101F2000003F23F4D0730C3242E800310029F3D192
:101F3000226802F1140353E8003F23F00103143236
:101F400042E800310029F3D1202384F83D3084F8A1
:101F50003E30002384F83C30032000E00020BDE840
:101F6000F08158B310B5044690F83D300BB32423EC
:101F700084F83D302268D36823F40053D3602046B0
:101F8000FFF716FF2268136923F490431361226858
:101F9000536923F02A0353612268D36843F4005342
:101FA000D36000202064202384F83D3084F83E3044
:101FB00010BD80F83C30FEF727FDD8E701207047C0
:101FC0002DE9F04182B01E4690F83D30DBB2202B67
:101FD00054D104460D469046002954D0002A54D0CE
:101FE00090F83C30012B52D0012380F83C30002384
:101FF0000364212380F83D30FEF7E8FD0746A4F88E
:102000002480A4F82680A368B3F5805F05D04FF044
:102010000008002384F83C3011E0236913B14FF02D
:102020000008F6E7A8460025F3E738F8023B2268E7
:10203000C3F308035360E38C013B9BB2E384E38C5E
:102040009BB273B100963B46002280212046FFF7E9
:1020500049FFF0B9002DE8D015F8012B23685A602C
:10206000E9E700963B46002240212046FFF73AFF71
:10207000034680B9202284F83D2000E00223184660
:1020800002B0BDE8F0810123F9E70123F7E702235D
:10209000F5E70323F3E70323F1E70000DFF834D08B
:1020A0000D480E490E4A002302E0D458C4500433B0
:1020B000C4188C42F9D30B4A0B4C002301E0136087
:1020C0000432A242FBD3FEF72DFD00F017F8FEF715
:1020D000CBFB7047000002200000002070000020B1
:1020E000502A00087000002010010020FEE70000C8
:1020F000014B1868704700BF0C00002070B50D4EF2
:102100000D4CA41BA4100025A54209D10B4E0C4C6C
:1021100000F01EFCA41BA4100025A54205D170BD33
:1021200056F8253098470135EEE756F825309847A0
:102130000135F2E7482A0008482A0008482A000822
:102140004C2A00080EB400B59CB01DAB029006905E
:102150006FF00041094807910491094953F8042B95
:1021600005910068019302A900F066F8029B002225
:102170001A701CB05DF804EB03B070470C0000202F
:102180000802FFFF2DE9F0478E689E4282460C460A
:102190009046994637D88A8912F4906F31D02568D5
:1021A00009696F1A6569022305EB450595FBF3F58F
:1021B00009F101033B449D4238BF1D46530530D50C
:1021C000294600F02BFB064650B90C23CAF8003014
:1021D000A38943F04003A3814FF0FF30BDE8F087AF
:1021E0003A46216900F0A8FAA38923F4906343F0EA
:1021F0008003A381266165613E44ED1B2660A560D6
:102200004E464E4500D94E4632464146206800F0C3
:102210009EFAA3689B1BA36023681E4426600020CF
:10222000DCE72A4600F054FB06460028E2D121698B
:10223000504600F0A5FAC8E72DE9F04F1D468B89FE
:102240001F069DB080460C4616460FD50B696BB92C
:10225000402100F0E3FA2060206128B90C23C8F87F
:1022600000304FF0FF30C8E0402363610023099342
:1022700020238DF8293030238DF82A3003954FF034
:10228000010B37463D4615F8013B0BB1252B3ED1DE
:10229000B7EB060A0BD05346324621464046FFF7BD
:1022A00071FF013000F0A480099B534409933B78EF
:1022B000002B00F09D8000234FF0FF32CDE9052375
:1022C000049307938DF853301A932F46052217F87D
:1022D000011B5048FEF724F9049BD0B9D90644BF2E
:1022E00020228DF853201A0744BF2B228DF853204B
:1022F0002A782A2A15D0079A2F4600200A2539461F
:1023000011F8013B303B092B4DD9B8B10FE02F46F6
:10231000B8E7404A801A0BFA00F0184304903D4693
:10232000D3E7039A111D12680391002A01DB07927B
:1023300004E0524243F00203079204933B782E2BB1
:102340000CD17B782A2B33D1039B1A1D1B68039277
:10235000002BB8BF4FF0FF33023705932E4D39786D
:1023600003222846FEF7DCF838B14023401B03FA6D
:1023700000F0049B034301370493397827488DF814
:10238000281006227E1CFEF7CBF8002838D0244BFC
:1023900013BB039B073323F0070308330393099B05
:1023A0004B4409936DE705FB023201200F46A6E777
:1023B00000230137059319460A25384610F8012BEA
:1023C000303A092A03D9002BC8D00591C6E705FB8E
:1023D000012101230746F0E703AB00932246114B8E
:1023E00004A94046AFF30080B0F1FF3F8146D6D14B
:1023F000A3895B063FF535AF09981DB0BDE8F08FA6
:1024000003AB00932246074B04A9404600F082F834
:10241000EAE700BF0C2A0008122A0008162A000862
:1024200000000000852100082DE9F04791461F4675
:102430008A680B69DDF820809342B8BF1346C9F85B
:10244000003091F8432006460C4612B10133C9F81A
:1024500000302368990642BFD9F800300233C9F82A
:102460000030256815F0060507D104F1190AE36864
:10247000D9F800209B1AAB4228DC94F8433022683C
:10248000003318BF012392062DD404F143023946CC
:102490003046C047013020D02368E568D9F80020D5
:1024A00003F00603042B08BFAD1AA36822690CBF12
:1024B00025EAE57500259342C4BF9B1AED184FF03D
:1024C00000091A344D451AD1002008E00123524674
:1024D00039463046C047013003D14FF0FF30BDE8E8
:1024E000F0870135C3E7E1185A1C302081F843001A
:1024F000224494F8451082F843100233C5E70123C3
:10250000224639463046C0470130E6D009F101097C
:10251000D8E700002DE9F04301F1430C0C46097E99
:1025200085B06E291746064698460C9A00F0B3808F
:1025300022D8632936D00AD8002900F0B98058295A
:1025400000F0838004F1420584F8421032E06429EF
:1025500001D06929F6D120681368050603F104014A
:102560002AD51B681160002B03DA2D225B4284F808
:1025700043206F480A2239E0732900F09D8008D873
:102580006F2920D07029DDD1236843F02003236018
:1025900003E0752917D07829D4D1782384F8453001
:1025A000644855E01368191D1B68116004F1420569
:1025B00084F8423001238CE01B68116010F0400F5A
:1025C00018BF1BB2CFE713682568181D10602806D6
:1025D00001D51B6802E06806FBD51B8854486F29AB
:1025E00014BF0A220822002184F843106568A56000
:1025F000002DC0F29580216821F004012160002B9C
:102600003DD1002D40F08E806546082A0BD123680D
:10261000DB0708D5236962689A42DEBF302305F8DC
:10262000013C05F1FF35ACEB05032361CDF80080DB
:102630003B4603AA21463046FFF7F6FE01304DD156
:102640004FF0FF3005B0BDE8F083394884F84510FD
:10265000136821681D1D1B6815600A060BD5CA0783
:1026600044BF41F0200121601BB9226822F0200202
:1026700022601022B7E74D0648BF9BB2EFE76546E0
:10268000B3FBF2F102FB1133C35C05F8013D0B46CD
:102690000029F5D1B9E7136825686169181D106034
:1026A00028061B6801D5196002E06A06FBD519806F
:1026B000002323616546B9E71368191D11601D6881
:1026C000626800212846FDF72BFF08B1401B6060BF
:1026D00063682361002384F84330A7E723692A460F
:1026E00039463046C0470130AAD023689B0713D42F
:1026F000E068039B9842B8BF1846A3E701234A4607
:1027000039463046C04701309AD00135E368039A14
:102710009B1AAB42F2DCEBE7002504F11909F5E75F
:10272000002BACD1037884F8423004F142056CE709
:102730001D2A00082E2A000810B5431E0A449142A3
:1027400000D110BD11F8014B03F8014FF7E78842A3
:1027500010B501EB020307D8421E99420AD011F8C6
:10276000014B02F8014FF8E78342F5D98118D21ADC
:10277000D34200D110BD13F8014D01F8014DF7E728
:1027800038B50546002945D051F8043C0C1F002BF4
:10279000B8BFE41800F0D2F81F4A1368104633B9E6
:1027A000636014602846BDE8384000F0C8B8A34212
:1027B0000CD921686218934204BF1A685B68636091
:1027C00004BF521822600460ECE713465A680AB14D
:1027D000A242FAD919685818A0420BD120680144C6
:1027E000581882421960DDD1106852685A6001445D
:1027F0001960D7E702D90C232B60D3E72068211892
:102800008A4204BF11685268626004BF09182160DF
:102810005C60C7E738BD00BF9400002070B5CD1CD8
:1028200025F0030508350C2D38BF0C25002D064674
:1028300001DBA94203D90C233360002070BD00F0F6
:102840007DF8214A1468214691B9204C23681BB9B0
:10285000304600F063F820602946304600F05EF80C
:10286000431C24D10C233360304600F068F8E4E7C1
:102870000B685B1B18D40B2B0FD90B60CD50CC18F9
:10288000304600F05CF804F10B00231D20F0070037
:10289000C31AD3D05A42E250D0E78C424B6816BFDD
:1028A000636013600C46EBE70C464968CCE7C41C38
:1028B00024F00304A04205D0211A304600F02EF87F
:1028C0000130CFD02560DBE7940000209800002085
:1028D000F8B5074614460E4621B91146BDE8F84042
:1028E000FFF79CBF22B9FFF74BFF25462846F8BDEE
:1028F00000F026F8A0420FD221463846FFF78EFF9F
:1029000005460028F2D031462246FFF715FF314632
:102910003846FFF735FFE9E73546E7E738B5064CB7
:102920000023054608462360FEF7DEF8431C02D16B
:10293000236803B12B6038BD0C010020704770473D
:1029400051F8043C181F002BBCBF0B58C01870472F
:10295000F8B500BFF8BC08BC9E467047F8B500BF8C
:08296000F8BC08BC9E4670475C
:1029680048454C4C4F0000000000000000000000EB
:10297800010203040607080900000000010203041D
:102988004D656E73616A6520726563696269646F1B
:102998003A2025730D0A00004D656E73616A652043
:1029A8007472616E736D697469646F3A4D300D0AA3
:1029B800000000004D656E73616A65207472616E77
:1029C800736D697469646F3A4D310D0A0000000037
:1029D8004D656E73616A65207472616E736D69749A
:1029E80069646F3A4D320D0A0000000043414E20E1
:1029F8004572726F722064657465637461646F0DEB
:102A08000A000000232D302B2000686C4C006566FE
:102A18006745464700303132333435363738394127
:102A2800424344454600303132333435363738393D
:082A3800616263646566000041
:082A400000D8FF7F0100000037
:042A4800F50100088C
:042A4C00D1010008AC
:102A50000024F4000100000010000000100000201D
:102A60000000000000000000000000000000000066
:102A70000000000000000000000000000000000056
:102A80000000000000000000000000000000000046
:102A90000000000000000000000000000000000036
:102AA0000000000000000000000000000000000026
:102AB0000000000000000000000000000000000016
:040000050800209D32
:00000001FF
