:020000040800F2
:100000000080002095150008E5150008E51500089A
:10001000E5150008E5150008E515000800000000DA
:10002000000000000000000000000000E5150008CE
:10003000E515000800000000E51500081905000896
:10004000E5150008E5150008E5150008E5150008A8
:10005000E5150008E5150008E5150008E515000898
:10006000E5150008E5150008E5150008E515000888
:10007000E5150008E5150008E5150008E515000878
:10008000E5150008E5150008E5150008000000006A
:10009000000000000000000000000000E51500085E
:1000A000E5150008E5150008E5150008E515000848
:1000B000000000000000000000000000E51500083E
:1000C000E5150008E5150008E5150008E515000828
:1000D000E5150008E51500085105000800000000BE
:1000E000E5150008E515000800000000000000000C
:1000F000000000000000000000000000E5150008FE
:100100000000000000000000E515000800000000ED
:1001100000000000000000002505000800000000AD
:10012000E5150008E5150008E5150008E5150008C7
:10013000E5150008000000000000000000000000BD
:1001400000000000000000000000000000000000AF
:10015000E5150008E5150008E5150008E515000897
:10016000000000000000000000000000000000008F
:10017000000000000000000000000000000000007F
:10018000E5150008E515000800000000000000006B
:1001900000000000E515000800000000000000005D
:1001A000000000000000000000000000000000004F
:1001B000000000000000000000000000E51500083D
:0801C000E5150008E515000833
:1001C80010B5054C237833B9044B13B10448AFF389
:1001D80000800123237010BD4000002000000000B3
:1001E8003016000808B5034B1BB103490348AFF3A9
:1001F800008008BD00000000440000203016000800
:1002080053B94AB9002908BF00281CBF4FF0FF3175
:100218004FF0FF3000F072B9ADF1080C6DE904CE73
:1002280000F006F8DDF804E0DDE9022304B07047C9
:100238002DE9F047089E04468846002B4BD18A4298
:10024800154667D9B2FA82F24AB1C2F1200701FA1B
:1002580002F320FA07F7954047EA030894404FEA6B
:10026800154E230CB8FBFEF71FFA85FC0EFB17880A
:1002780043EA084307FB0CF1994209D9EB1807F147
:10028800FF3080F01B81994240F21881023F2B44D5
:100298005B1AA4B2B3FBFEF00EFB103344EA03442E
:1002A80000FB0CFCA44509D92C1900F1FF3380F0A0
:1002B8000781A44540F2048102382C4440EA0740F3
:1002C800A4EB0C0400271EB1D4400023C6E9004368
:1002D8003946BDE8F0878B4209D9002E00F0EB8043
:1002E8000027C6E9000138463946BDE8F087B3FA69
:1002F80083F7002F47D18B4202D3824200F2FA8063
:10030800841A61EB030301209846002EE0D0C6E969
:100318000048DDE702B9FFDEB2FA82F2002A40F0B7
:100328008F80491B4FEA154E1FFA85F80127B1FB4C
:10033800FEFC230C0EFB1C1143EA014308FB0CF1E5
:10034800994207D9EB180CF1FF3002D2994200F21A
:10035800CD808446591AA3B2B1FBFEF00EFB1014EF
:1003680043EA044408FB00F8A04507D92C1900F11A
:10037800FF3302D2A04500F2B6801846A4EB080469
:1003880040EA0C409FE7C7F1200CBB4022FA0CFE64
:100398004EEA030E01FA07F420FA0CF521FA0CF3E1
:1003A8004FEA1E482543B3FBF8F92C0C08FB193318
:1003B8001FFA8EFA44EA034309FB0AF49C4202FA44
:1003C80007F200FA07F10BD91EEB030309F1FF301E
:1003D80080F087809C4240F28480A9F1020973442E
:1003E8001B1BADB2B3FBF8F008FB103345EA03441E
:1003F80000FB0AFAA24508D91EEB040400F1FF33FA
:100408006BD2A24569D90238744440EA0940A0FB7E
:100418000289A4EB0A044C45C2464B4654D351D03A
:10042800002E69D0B1EB0A0564EB030404FA0CFC56
:10043800FD40FC404CEA0505C6E90054002747E7A3
:10044800C2F1200320FA03F7954001FA02F021FADD
:1004580003F34FEA154E3843010CB3FBFEF71FFABE
:1004680085F80EFB173341EA034107FB08F38B427B
:1004780004FA02F407D9691807F1FF3C2FD28B421E
:100488002DD9023F2944CB1A81B2B3FBFEF00EFBF3
:10049800103341EA034100FB08F38B4207D969187E
:1004A80000F1FF3C17D28B4215D902382944C91AEA
:1004B80040EA07473BE73746304609E70746E7E69D
:1004C8001846FBE64145ABD2B8EB020A69EB0E02CF
:1004D80001381346A4E76046E9E7184695E76746FA
:1004E800D1E781467CE702382C4447E7ACF1020C9F
:1004F8002B442FE7384608E73746E9E6704700BF40
:10050800034613F8012B002AFBD1181A013870474B
:1005180008B500F075F900F0F0F908BD10B5084C01
:1005280001224FF48051204600F014FB054800F0EA
:1005380079FB00224FF48051204600F00BFB10BDE0
:10054800000002405C00002008B5024800F0E6FE0A
:1005580008BD00BFA400002000B587B000210091AD
:100568000A4B1A6B42F001021A631B6B03F001037A
:100578000093009B2023019301230293039101A977
:10058800034800F01BFA07B05DF804FB003802408E
:100598000000024010B5074C01224FF4805120465C
:1005A80000F0D8FA00224FF48051204600F0D2FA29
:1005B80010BD00BF0000024000B587B04FF6F373CE
:1005C80001930323029301A9024800F0F7F907B049
:1005D8005DF804FB00000240FEE7000008B507488C
:1005E800074B036041F2873343601F23C36000F069
:1005F8000BFC00B908BDFFF7EFFF00BF5C0000204F
:100608000010004008B50948094B03604FF4E13376
:10061800436000238360C360036183610C234361EB
:1006280000F057FD00B908BDFFF7D6FFA400002071
:100638000044004008B500F0C9F8FFF78DFFFFF748
:10064800E1FFFFF7CBFFFFF7B7FF00F089FA034B95
:1006580000221A61024800F0B1FAFEE700100040DB
:100668005C00002010B5074C2046FFF749FF4FF00B
:10067800FF3382B22146044800F05AFD00B910BD8C
:10068800FFF7AAFF00000020A400002008B50320FF
:1006980000F0C8F80B4A536A43F4E023536200227F
:1006A80011466FF00B0000F0CFF8002211466FF0F2
:1006B8000A0000F0C9F8002211466FF0090000F0A6
:1006C800C3F808BD00ED00E030B589B000240194FE
:1006D800184B1A6C42F400321A641A6C02F4003295
:1006E8000192019A02941A6B42F001021A631B6B81
:1006F80003F001030293029B042303930223049350
:10070800012305930694072307930B4D03A9284655
:1007180000F054F90823039303A9284600F04EF982
:10072800262000F0C5F822460F21262000F08CF87C
:1007380009B030BD003802400000024010B582B058
:1007480000240194094B1A6C42F010021A641B6CC5
:1007580003F010030193019B362000F0A9F822460C
:100768000F21362000F070F802B010BD00380240AA
:10077800034AD2F8883043F47003C2F888307047CF
:1007880000ED00E010B504460E4B18784FF47A736C
:10079800B3FBF0F30C4A1068B0FBF3F000F096F8E6
:1007A80068B90F2C01D901200AE0002221464FF038
:1007B800FF3000F049F8034B5C60002000E00120A6
:1007C80010BD00BF380000203400002008B50B4BD6
:1007D8001A6842F400721A601A6842F480621A6059
:1007E8001A6842F480721A60032000F01BF8002097
:1007F800FFF7C8FFFFF74AFF002008BD003C024092
:10080800034A1168034B1B780B441360704700BF01
:10081800E800002038000020014B1868704700BF2E
:10082800E8000020074AD36823F4E0631B041B0C8C
:10083800000200F4E060184340F0BF6040F400306C
:10084800D060704700ED00E030B4174BDB68C3F3AD
:100858000223C3F10704042C28BF04241D1D062D00
:1008680018D9033B4FF0FF3505FA04F421EA0401D7
:10087800994005FA03F322EA0303194300280BDB26
:100888000901C9B200F1604000F5614080F8001329
:1008980030BC70470023E5E700F00F000901C9B23A
:1008A800024B1954F4E700BF00ED00E014ED00E03E
:1008B800002807DB00F01F02400901239340024A89
:1008C80042F82030704700BF00E100E00138B0F185
:1008D800807F0AD2064B5860064AF02182F823101E
:1008E8000020986007221A6070470120704700BFF7
:1008F80010E000E000ED00E0704708B5FFF7FCFFEE
:1009080008BD70B50446866DFFF786FF94F835304C
:10091800DBB2022B06D080236365002384F83430D1
:10092800012070BD05462268136823F01603136082
:100938002268536923F080035361236CE3B1226872
:10094800136823F0080313602268136823F0010377
:10095800136023681B6813F0010F11D0FFF75CFFC9
:10096800401B0528F5D920236365032084F835004A
:10097800002384F83430D4E7A36C002BDFD1E3E7FD
:10098800E26D3F239340B360012384F835300020A3
:1009980084F83400C5E790F83530DBB2022B03D079
:1009A8008023436501207047052380F835300268AD
:1009B800136823F0010313600020704700230F2BF6
:1009C80000F2BE80F0B482B05DE086685F00032468
:1009D800BC4026EA0406CC68BC40344384604668C0
:1009E80026EA02064C68C4F300129A403243426079
:1009F80056E0DC08083450F8247003F0070296002B
:100A08000F22B24027EA02070A69B2403A4340F887
:100A1800242059E0022200E00022B2403A43023486
:100A2800484E46F82420484A1468EA4302EA040675
:100A38004F6817F4803F01D045EA0406424C26600F
:100A4800646802EA04064F6817F4003F01D045EADB
:100A580004063D4C6660A46802EA04064F6817F471
:100A6800801F01D045EA0406374CA660E46822409E
:100A78004E6816F4001F01D045EA0402324CE260C9
:100A880001330F2B59D801229A400C6804EA020559
:100A9800AA42F5D14C6804F00304013C012C94D916
:100AA8004A6802F00302032A09D0C4685E000322E0
:100AB800B24024EA02048A68B2402243C2604A680B
:100AC80002F00302022A94D004685E000322B240B6
:100AD80024EA02044A6802F00302B2402243026098
:100AE8004A6812F4403FCBD000220192174A546C56
:100AF80044F480445464526C02F480420192019A96
:100B08009C08A61C0F4A52F8267003F003029600B0
:100B18000F22B24027EA02070D4A90423FF47CAF09
:100B280002F58062904206D002F5806290423FF45E
:100B380071AF072271E701226FE702B0F0BC70477E
:100B4800704700BF00380140003C014000380240B7
:100B58000000024012B90904816170478161704741
:100B6800024A136943F002031361704700ED00E085
:100B7800014B1868704700BF3400002008B5FFF724
:100B8800F7FF044B9B68C3F38223034AD35CD84026
:100B980008BD00BF003802405816000808B5FFF726
:100BA800E7FF044B9B68C3F34233034AD35CD84046
:100BB80008BD00BF003802405816000890F83D30C4
:100BC800DBB2012B01D001207047022380F83D30B1
:100BD8000268D36843F00103D36003680E4A934266
:100BE8000DD0A2F57442934209D002F59A3293428D
:100BF80005D01A6842F001021A60002070479A680E
:100C080002F00702062A05D01A6842F001021A60AB
:100C1800002070470020704700000140704770476F
:100C28007047704710B5044603681A6912F0020F3E
:100C380011D0DA6812F0020F0DD06FF002021A61BB
:100C48000123037703689B6913F0030F70D0FFF744
:100C5800E6FF0023237723681A6912F0040F12D0E5
:100C6800DA6812F0040F0ED06FF004021A61022342
:100C7800237723689B6913F4407F5FD02046FFF7F2
:100C8800CEFF0023237723681A6912F0080F12D0C9
:100C9800DA6812F0080F0ED06FF008021A61042308
:100CA80023772368DB6913F0030F4ED02046FFF744
:100CB800B6FF0023237723681A6912F0100F12D0A9
:100CC800DA6812F0100F0ED06FF010021A610823C4
:100CD80023772368DB6913F4407F3DD02046FFF774
:100CE8009EFF0023237723681A6912F0010F03D0AF
:100CF800DA6812F0010F36D123681A6912F0800FF2
:100D080003D0DA6812F0800F34D123681A6912F020
:100D1800400F03D0DA6812F0400F32D123681A6905
:100D280012F0200F03D0DA6812F0200F30D110BD76
:100D3800FFF774FF2046FFF773FF8AE72046FFF7A7
:100D48006DFF2046FFF76CFF9BE72046FFF766FF25
:100D58002046FFF765FFACE72046FFF75FFF204618
:100D6800FFF75EFFBDE76FF001021A612046FFF74B
:100D780079FCC1E76FF080021A61204600F070F834
:100D8800C3E76FF040021A612046FFF74AFFC5E744
:100D98006FF020021A61204600F061F8C7E70000F2
:100DA8000368184A904203D0A2F57442904203D1D6
:100DB80023F070034A681343124A90420BD0A2F5FD
:100DC8007442904207D002F59A32904203D002F55D
:100DD8000062904203D123F44073CA68134323F09E
:100DE80080034A69134303608B68C3620B6883629C
:100DF800044B984202D00123436170470B69036397
:100E0800F9E700BF0000014038B310B5044690F878
:100E18003D30EBB1022384F83D30211D2068FFF7F7
:100E2800BFFF012384F8463084F83E3084F83F3011
:100E380084F8403084F8413084F8423084F84330F4
:100E480084F8443084F8453084F83D30002010BDE3
:100E580080F83C30FFF772FCDCE7012070477047F0
:100E68007047026802F10C0353E8003F23F49073C3
:100E78000C3242E800310029F3D1026802F1140370
:100E880053E8003F23F00103143242E800310029FF
:100E9800F3D1036B012B05D0202380F83E300023CB
:100EA80003637047026802F10C0353E8003F23F024
:100EB80010030C3242E800310029F3D1ECE790F836
:100EC8003D30DBB2212B27D18368B3F5805F16D084
:100ED800036A5A1C02621A7803685A60C38C013B81
:100EE8009BB2C384D3B90268D36823F08003D3606C
:100EF8000268D36843F04003D36000207047036959
:100F0800002BE5D1036A1B880268C3F3080353600A
:100F1800036A02330362E1E702207047002070474A
:100F28002DE9F04B04460268136923F44053C16865
:100F38000B43136183680269134342691343C2690F
:100F48001A430168CB6823F4164323F00C031343B8
:100F5800CB600268536923F4407381690B43536182
:100F680003683A4A934206D002F58062934202D05F
:100F7800FFF704FE01E0FFF711FEE369B3F5004F48
:100F880030D04FF00009061849EB090716EB000BA3
:100F980047EB090C4FEACC0343EA5B734FEACB02F9
:100FA80093469C4663689A009B0F10EB0B0049EB35
:100FB8000C01FFF725F9264DA5FB003251096422E3
:100FC80002FB110213013233A5FB03235B0903F073
:100FD800F00202EB011203F00F03216813448B6047
:100FE800BDE8F08B83464FF0000C06184CEB0C075D
:100FF80016EB000847EB0C094FEAC90343EA58739C
:101008004FEAC8029046994662680021921841EB5F
:1010180001031BEB08004CEB0901FFF7F1F80C4D3D
:10102800A5FB00325109642202FB1102D3003233BE
:10103800A5FB03235B095A0002F4F87202EB0112C4
:1010480003F00703216813448B60C9E700100140CF
:101058001F85EB512DE9F04104460F461646984688
:10106800069D23681B6837EA03030CBF012300238E
:10107800B3422BD1B5F1FF3FF3D02DB1FFF7CCFB35
:10108800A0EB0800A842ECD9226802F10C0353E84F
:10109800003F23F4D0730C3242E800310029F3D129
:1010A800226802F1140353E8003F23F001031432CD
:1010B80042E800310029F3D1202384F83D3084F838
:1010C8003E30002384F83C30032000E00020BDE8D7
:1010D800F08158B310B5044690F83D300BB3242383
:1010E80084F83D302268D36823F40053D360204647
:1010F800FFF716FF2268136923F4904313612268EF
:10110800536923F02A0353612268D36843F40053D8
:10111800D36000202064202384F83D3084F83E30DA
:1011280010BD80F83C30FFF7CFFAD8E701207047B0
:101138002DE9F04182B01E4690F83D30DBB2202BFD
:1011480054D104460D469046002954D0002A54D064
:1011580090F83C30012B52D0012380F83C3000231A
:101168000364212380F83D30FFF756FB0746A4F8B7
:101178002480A4F82680A368B3F5805F05D04FF0DB
:101188000008002384F83C3011E0236913B14FF0C4
:101198000008F6E7A8460025F3E738F8023B22687E
:1011A800C3F308035360E38C013B9BB2E384E38CF5
:1011B8009BB273B100963B46002280212046FFF780
:1011C80049FFF0B9002DE8D015F8012B23685A60C3
:1011D800E9E700963B46002240212046FFF73AFF08
:1011E800034680B9202284F83D2000E002231846F7
:1011F80002B0BDE8F0810123F9E70123F7E70223F4
:10120800F5E70323F3E70323F1E708B50168CB68A3
:1012180023F04003CB60202380F83D30FFF7BAF974
:10122800002008BD7047704708B5806B0023C38550
:10123800C384FFF7F8FF08BD704790F83E30DBB273
:10124800222B67D18368B3F5805F4CD0826AB3F5EF
:10125800805F04D0002B53D10369002B50D1036861
:101268005B681370836A01338362C38D013B9BB251
:10127800C385002B50D100B583B00268D36823F032
:101288002003D3600268D36823F48073D3600268B4
:10129800536923F001035361202380F83E30036B28
:1012A800012B33D100230363026802F10C0353E8D6
:1012B800003F23F010030C3242E800310029F3D13B
:1012C80003681A6812F0100F06D0002201921A68FB
:1012D80001925B680193019B818DFFF7ADFF0020B0
:1012E80003B05DF804FB0269002AAFD1826A036883
:1012F8005B68C3F308031380836A02338362B4E72D
:1013080003685B6803F07F031370ABE7FFF78AFF9E
:101318000020E5E7022070470020704730B583B011
:10132800044602681368D068516913F00F0505D1A7
:1013380013F0200F02D010F0200F5ED1002D72D0D4
:1013480011F0010102D110F4907F6CD013F0010F5D
:1013580006D010F4807F03D0226C42F00102226490
:1013680013F0040F04D019B1226C42F00202226477
:1013780013F0020F04D019B1226C42F00402226467
:1013880013F0080F07D010F0200F00D119B1226C0C
:1013980042F008022264226C002A55D013F0200F74
:1013A80002D010F0200F2CD123685B6903F04003B2
:1013B800226C12F0080F00D17BB32046FFF751FDD5
:1013C80023685B6913F0400F23D0226802F11403ED
:1013D80053E8003F23F04003143242E8003100296B
:1013E800F3D1A36B8BB1684A1A65A06BFFF7D3FAE8
:1013F80050B3A06B036D984726E02046FFF71DFF0A
:1014080022E02046FFF719FFCEE72046FFF70BFF43
:101418001AE02046FFF707FF16E02046FFF703FF14
:101428000023236410E0216B01290FD013F0800FF3
:1014380003D010F0800F40F09F8013F0400F03D0CE
:1014480010F0400F40F09C8003B030BD13F0100F37
:10145800ECD010F0100FE9D000230193136801932A
:1014680053680193019B536913F0400F4DD0A26B51
:1014780013685B689BB2002BE6D0A18D9942E3D933
:10148800E385D369B3F5807F37D0226802F10C0376
:1014980053E8003F23F480730C3242E800310029FE
:1014A800F3D1226802F1140353E8003F23F001034B
:1014B800143242E800310029F3D1226802F1140302
:1014C80053E8003F23F04003143242E8003100297A
:1014D800F3D1202384F83E3000232363226802F1ED
:1014E8000C0353E8003F23F010030C3242E80031AC
:1014F8000029F3D1A06BFFF704FAA18DE38DC91A77
:1015080089B22046FFF798FE9EE7A18DE38DC91AA0
:1015180089B2E38D9BB2002B96D0002994D0226823
:1015280002F10C0353E8003F23F490730C3242E8B5
:1015380000300028F3D1226802F1140353E8003F79
:1015480023F00103143242E800300028F3D12023AD
:1015580084F83E3000232363226802F10C0353E829
:10156800003F23F010030C3242E800300028F3D18A
:101578002046FFF761FE67E72046FFF7A0FC63E718
:101588002046FFF742FE5FE731120008DFF834D04B
:101598000D480E490E4A002302E0D458C4500433C3
:1015A800C4188C42F9D30B4A0B4C002301E013609A
:1015B8000432A242FBD3FFF7DBF800F011F8FFF783
:1015C80039F870470080002000000020400000200B
:1015D8007016000840000020EC000020FEE7000024
:1015E80070B50D4E0D4CA41BA4100025A54209D1C1
:1015F8000B4E0C4C00F018F8A41BA4100025A542B3
:1016080005D170BD56F8253098470135EEE756F8F4
:10161800253098470135F2E7681600086816000873
:10162800681600086C160008F8B500BFF8BC08BCBE
:101638009E467047F8B500BFF8BC08BC9E46704788
:10164800000000000000000001020304060708096A
:08165800000000000102030480
:08166000D8EBFF7F0100000040
:04166800ED01000888
:04166C00C9010008A8
:10167000457374616D6F73207465737465616E6416
:101680006F206C6120636172616374657269737449
:1016900069636120534C4545504F4E455849540DA0
:1016A0000A0000000024F400010000001000000007
:040000050800159545
:00000001FF
