:020000040800F2
:1000000000800020D51000082511000825110008E7
:100010002511000825110008251100080000000026
:100020000000000000000000000000002511000892
:100030002511000800000000251100082511000806
:1000400025110008251100082511000825110008B8
:1000500025110008251100082511000825110008A8
:100060002511000825110008251100082511000898
:100070002511000825110008251100082511000888
:1000800025110008251100082511000800000000B6
:100090000000000000000000000000002511000822
:1000A0002511000825110008251100082511000858
:1000B0000000000000000000000000002511000802
:1000C0002511000825110008251100082511000838
:1000D0002511000825110008150500080000000082
:1000E00009050008251100080000000000000000BC
:1000F00000000000000000000000000025110008C2
:1001000000000000000000002511000800000000B1
:1001100000000000000000002511000800000000A1
:1001200025110008251100082511000825110008D7
:100130002511000800000000000000000000000081
:1001400000000000000000000000000000000000AF
:1001500025110008251100082511000825110008A7
:10016000000000000000000000000000000000008F
:10017000000000000000000000000000000000007F
:1001800025110008251100080000000000000000F3
:100190000000000025110008000000000000000021
:1001A000000000000000000000000000000000004F
:1001B0000000000000000000000000002511000801
:0801C0002511000825110008BB
:1001C80010B5054C237833B9044B13B10448AFF389
:1001D80000800123237010BD0C00002000000000E7
:1001E8007011000808B5034B1BB103490348AFF36E
:1001F800008008BD000000001000002070110008F9
:1002080053B94AB9002908BF00281CBF4FF0FF3175
:100218004FF0FF3000F072B9ADF1080C6DE904CE73
:1002280000F006F8DDF804E0DDE9022304B07047C9
:100238002DE9F047089E04468846002B4BD18A4298
:10024800154667D9B2FA82F24AB1C2F1200701FA1B
:1002580002F320FA07F7954047EA030894404FEA6B
:10026800154E230CB8FBFEF71FFA85FC0EFB17880A
:1002780043EA084307FB0CF1994209D9EB1807F147
:10028800FF3080F01B81994240F21881023F2B44D5
:100298005B1AA4B2B3FBFEF00EFB103344EA03442E
:1002A80000FB0CFCA44509D92C1900F1FF3380F0A0
:1002B8000781A44540F2048102382C4440EA0740F3
:1002C800A4EB0C0400271EB1D4400023C6E9004368
:1002D8003946BDE8F0878B4209D9002E00F0EB8043
:1002E8000027C6E9000138463946BDE8F087B3FA69
:1002F80083F7002F47D18B4202D3824200F2FA8063
:10030800841A61EB030301209846002EE0D0C6E969
:100318000048DDE702B9FFDEB2FA82F2002A40F0B7
:100328008F80491B4FEA154E1FFA85F80127B1FB4C
:10033800FEFC230C0EFB1C1143EA014308FB0CF1E5
:10034800994207D9EB180CF1FF3002D2994200F21A
:10035800CD808446591AA3B2B1FBFEF00EFB1014EF
:1003680043EA044408FB00F8A04507D92C1900F11A
:10037800FF3302D2A04500F2B6801846A4EB080469
:1003880040EA0C409FE7C7F1200CBB4022FA0CFE64
:100398004EEA030E01FA07F420FA0CF521FA0CF3E1
:1003A8004FEA1E482543B3FBF8F92C0C08FB193318
:1003B8001FFA8EFA44EA034309FB0AF49C4202FA44
:1003C80007F200FA07F10BD91EEB030309F1FF301E
:1003D80080F087809C4240F28480A9F1020973442E
:1003E8001B1BADB2B3FBF8F008FB103345EA03441E
:1003F80000FB0AFAA24508D91EEB040400F1FF33FA
:100408006BD2A24569D90238744440EA0940A0FB7E
:100418000289A4EB0A044C45C2464B4654D351D03A
:10042800002E69D0B1EB0A0564EB030404FA0CFC56
:10043800FD40FC404CEA0505C6E90054002747E7A3
:10044800C2F1200320FA03F7954001FA02F021FADD
:1004580003F34FEA154E3843010CB3FBFEF71FFABE
:1004680085F80EFB173341EA034107FB08F38B427B
:1004780004FA02F407D9691807F1FF3C2FD28B421E
:100488002DD9023F2944CB1A81B2B3FBFEF00EFBF3
:10049800103341EA034100FB08F38B4207D969187E
:1004A80000F1FF3C17D28B4215D902382944C91AEA
:1004B80040EA07473BE73746304609E70746E7E69D
:1004C8001846FBE64145ABD2B8EB020A69EB0E02CF
:1004D80001381346A4E76046E9E7184695E76746FA
:1004E800D1E781467CE702382C4447E7ACF1020C9F
:1004F8002B442FE7384608E73746E9E6704700BF40
:1005080008B54FF4005000F0C3FA08BD08B502481A
:1005180000F0A4FC08BD00BF2800002010B588B07A
:1005280000240194154B1A6B42F001021A631A6BEE
:1005380002F001020192019A1A6D22F001021A6575
:1005480002941A6B42F004021A631B6B03F0040353
:100558000293029B4FF4005303934FF40813049340
:10056800059403A9064800F0BFF922464FF48051CC
:10057800044800F085FA08B010BD00BF00380240FA
:1005880000080240000002407047000010B58AB021
:100598004FF6F37305930324069405A9064800F063
:1005A800A3F94DF6FF73009301946946034800F0E0
:1005B8009BF90AB010BD00BF0000024000080240CD
:1005C800FEE7000008B50948094B03604FF46123B2
:1005D800436000238360C360036183610823436130
:1005E80000F084FB00B908BDFFF7EAFF28000020EF
:1005F8000044004008B5FFF791FF00F08DF8FFF7C1
:10060800E1FFFFF7C3FF30BFFDE7000008B5032097
:1006180000F0A2F80B4A536A43F4E0235362002225
:1006280011466FF00B0000F0A9F8002211466FF098
:100638000A0000F0A3F8002211466FF0090000F04C
:100648009DF808BD00ED00E030B589B000240194A4
:10065800184B1A6C42F400321A641A6C02F4003215
:100668000192019A02941A6B42F001021A631B6B01
:1006780003F001030293029B0423039302230493D0
:10068800012305930694072307930B4D03A92846D6
:1006980000F02AF90823039303A9284600F024F957
:1006A800262000F09FF822460F21262000F066F849
:1006B80009B030BD0038024000000240034AD2F8B9
:1006C800883043F47003C2F88830704700ED00E0CA
:1006D80010B504460E4B18784FF47A73B3FBF0F359
:1006E8000C4A1068B0FBF3F000F08AF868B90F2CD8
:1006F80001D901200AE0002221464FF0FF3000F026
:100708003DF8034B5C60002000E0012010BD00BFF5
:10071800040000200000002008B50B4B1A6842F4C2
:1007280000721A601A6842F480621A601A6842F409
:1007380080721A60032000F00FF80020FFF7C8FF4E
:10074800FFF764FF002008BD003C0240014B186819
:10075800704700BF6C000020074AD36823F4E063A9
:100768001B041B0C000200F4E060184340F0BF605B
:1007780040F40030D060704700ED00E030B4174B13
:10078800DB68C3F30223C3F10704042C28BF042445
:100798001D1D062D18D9033B4FF0FF3505FA04F44B
:1007A80021EA0401994005FA03F322EA03031943F5
:1007B80000280BDB0901C9B200F1604000F5614077
:1007C80080F8001330BC70470023E5E700F00F0005
:1007D8000901C9B2024B1954F4E700BF00ED00E06B
:1007E80014ED00E0002807DB00F01F024009012398
:1007F8009340024A42F82030704700BF00E100E011
:100808000138B0F1807F0AD2064B5860064AF021C1
:1008180082F823100020986007221A607047012090
:10082800704700BF10E000E000ED00E070B504463E
:10083800866DFFF78BFF94F83530DBB2022B06D0BC
:1008480080236365002384F83430012070BD054699
:100858002268136823F0160313602268536923F093
:1008680080035361236CE3B12268136823F0080303
:1008780013602268136823F00103136023681B6860
:1008880013F0010F11D0FFF761FF401B0528F5D9C0
:1008980020236365032084F83500002384F834306E
:1008A800D4E7A36C002BDFD1E3E7E26D3F2393404D
:1008B800B360012384F83530002084F83400C5E79C
:1008C80090F83530DBB2022B03D08023436501203A
:1008D8007047052380F835300268136823F0010358
:1008E800136000207047000000230F2B00F2BE8029
:1008F800F0B482B05DE086685F000324BC4026EA5D
:100908000406CC68BC4034438460466826EA020684
:100918004C68C4F300129A403243426056E0DC0847
:10092800083450F8247003F0070296000F22B240F2
:1009380027EA02070A69B2403A4340F8242059E0FE
:10094800022200E00022B2403A430234484E46F800
:100958002420484A1468EA4302EA04064F6817F458
:10096800803F01D045EA0406424C2660646802EAEA
:1009780004064F6817F4003F01D045EA04063D4CD1
:100988006660A46802EA04064F6817F4801F01D065
:1009980045EA0406374CA660E46822404E6816F41F
:1009A800001F01D045EA0402324CE26001330F2BEC
:1009B80059D801229A400C6804EA0205AA42F5D1E6
:1009C8004C6804F00304013C012C94D94A6802F0F5
:1009D8000302032A09D0C4685E000322B24024EA55
:1009E80002048A68B2402243C2604A6802F00302E5
:1009F800022A94D004685E000322B24024EA02046A
:100A08004A6802F00302B240224302604A6812F4C4
:100A1800403FCBD000220192174A546C44F48044E2
:100A28005464526C02F480420192019A9C08A61CFC
:100A38000F4A52F8267003F0030296000F22B240C4
:100A480027EA02070D4A90423FF47CAF02F5806224
:100A5800904206D002F5806290423FF471AF0722BF
:100A680071E701226FE702B0F0BC7047704700BF22
:100A780000380140003C01400038024000000240BC
:100A880012B909048161704781617047704700009D
:100A980008B5054B5B69034200D108BD024B58619C
:100AA800FFF7F4FFF9E700BF003C0140014B18686D
:100AB800704700BF0000002008B5FFF7F7FF044BA0
:100AC8009B68C3F38223034AD35CD84008BD00BFA8
:100AD800003802409811000808B5FFF7E7FF044BFB
:100AE8009B68C3F34233034AD35CD84008BD00BFB8
:100AF8000038024098110008026802F10C0353E81C
:100B0800003F23F490730C3242E800310029F3D1FE
:100B1800026802F1140353E8003F23F00103143282
:100B280042E800310029F3D1036B012B05D02023C3
:100B380080F83E30002303637047026802F10C031B
:100B480053E8003F23F010030C3242E8003100293B
:100B5800F3D1ECE790F83D30DBB2212B27D1836845
:100B6800B3F5805F16D0036A5A1C02621A780368CC
:100B78005A60C38C013B9BB2C384D3B90268D36863
:100B880023F08003D3600268D36843F04003D36046
:100B9800002070470369002BE5D1036A1B880268AF
:100BA800C3F308035360036A02330362E1E70220D8
:100BB80070470020704700002DE9F04B044602689A
:100BC800136923F44053C1680B43136183680269B6
:100BD800134342691343C2691A430168CB6823F47B
:100BE800164323F00C031343CB600268536923F4C4
:100BF800407381690B43536103683A4A934206D0B4
:100C080002F58062934202D0FFF756FF01E0FFF73A
:100C180063FFE369B3F5004F30D04FF000090618C1
:100C280049EB090716EB000B47EB090C4FEACC031D
:100C380043EA5B734FEACB0293469C4663689A008B
:100C48009B0F10EB0B0049EB0C01FFF7D9FA264D6F
:100C5800A5FB00325109642202FB11021301323351
:100C6800A5FB03235B0903F0F00202EB011203F07A
:100C78000F03216813448B60BDE8F08B83464FF067
:100C8800000C06184CEB0C0716EB000847EB0C0998
:100C98004FEAC90343EA58734FEAC8029046994697
:100CA80062680021921841EB01031BEB08004CEB32
:100CB8000901FFF7A5FA0C4DA5FB00325109642282
:100CC80002FB1102D3003233A5FB03235B095A0050
:100CD80002F4F87202EB011203F0070321681344CF
:100CE8008B60C9E7001001401F85EB5158B310B560
:100CF800044690F83D300BB3242384F83D30226835
:100D0800D36823F40053D3602046FFF755FF2268C9
:100D1800136923F4904313612268536923F02A036B
:100D280053612268D36843F40053D36000202064E1
:100D3800202384F83D3084F83E3010BD80F83C30E4
:100D4800FFF782FCD8E70120704708B50168CB6837
:100D580023F04003CB60202380F83D30FFF714FCDC
:100D6800002008BD7047704708B5806B0023C38515
:100D7800C384FFF7F8FF08BD704790F83E30DBB238
:100D8800222B67D18368B3F5805F4CD0826AB3F5B4
:100D9800805F04D0002B53D10369002B50D1036826
:100DA8005B681370836A01338362C38D013B9BB216
:100DB800C385002B50D100B583B00268D36823F0F7
:100DC8002003D3600268D36823F48073D360026879
:100DD800536923F001035361202380F83E30036BED
:100DE800012B33D100230363026802F10C0353E89B
:100DF800003F23F010030C3242E800310029F3D100
:100E080003681A6812F0100F06D0002201921A68BF
:100E180001925B680193019B818DFFF7ADFF002074
:100E280003B05DF804FB0269002AAFD1826A036847
:100E38005B68C3F308031380836A02338362B4E7F1
:100E480003685B6803F07F031370ABE7FFF78AFF63
:100E58000020E5E7022070470020704730B583B0D6
:100E6800044602681368D068516913F00F0505D16C
:100E780013F0200F02D010F0200F5ED1002D72D099
:100E880011F0010102D110F4907F6CD013F0010F22
:100E980006D010F4807F03D0226C42F00102226455
:100EA80013F0040F04D019B1226C42F0020222643C
:100EB80013F0020F04D019B1226C42F0040222642C
:100EC80013F0080F07D010F0200F00D119B1226CD1
:100ED80042F008022264226C002A55D013F0200F39
:100EE80002D010F0200F2CD123685B6903F0400377
:100EF800226C12F0080F00D17BB32046FFF7FCFDEF
:100F080023685B6913F0400F23D0226802F11403B1
:100F180053E8003F23F04003143242E8003100292F
:100F2800F3D1A36B8BB1684A1A65A06BFFF7C8FCB5
:100F380050B3A06B036D984726E02046FFF71DFFCE
:100F480022E02046FFF719FFCEE72046FFF70BFF08
:100F58001AE02046FFF707FF16E02046FFF703FFD9
:100F68000023236410E0216B01290FD013F0800FB8
:100F780003D010F0800F40F09F8013F0400F03D093
:100F880010F0400F40F09C8003B030BD13F0100FFC
:100F9800ECD010F0100FE9D00023019313680193EF
:100FA80053680193019B536913F0400F4DD0A26B16
:100FB80013685B689BB2002BE6D0A18D9942E3D9F8
:100FC800E385D369B3F5807F37D0226802F10C033B
:100FD80053E8003F23F480730C3242E800310029C3
:100FE800F3D1226802F1140353E8003F23F0010310
:100FF800143242E800310029F3D1226802F11403C7
:1010080053E8003F23F04003143242E8003100293E
:10101800F3D1202384F83E3000232363226802F1B1
:101028000C0353E8003F23F010030C3242E8003170
:101038000029F3D1A06BFFF7F9FBA18DE38DC91A45
:1010480089B22046FFF798FE9EE7A18DE38DC91A65
:1010580089B2E38D9BB2002B96D0002994D02268E8
:1010680002F10C0353E8003F23F490730C3242E87A
:1010780000300028F3D1226802F1140353E8003F3E
:1010880023F00103143242E800300028F3D1202372
:1010980084F83E3000232363226802F10C0353E8EE
:1010A800003F23F010030C3242E800300028F3D14F
:1010B8002046FFF761FE67E72046FFF74BFD63E731
:1010C8002046FFF742FE5FE7710D0008DFF834D0D5
:1010D8000D480E490E4A002302E0D458C450043388
:1010E800C4188C42F9D30B4A0B4C002301E013605F
:1010F8000432A242FBD3FFF7E1FA00F011F8FFF740
:1011080079FA704700800020000000200C000020C1
:10111800B01100080C00002070000020FEE700005D
:1011280070B50D4E0D4CA41BA4100025A54209D185
:101138000B4E0C4C00F018F8A41BA4100025A54277
:1011480005D170BD56F8253098470135EEE756F8B9
:10115800253098470135F2E7A8110008A8110008C2
:10116800A8110008AC110008F8B500BFF8BC08BC0D
:101178009E467047F8B500BFF8BC08BC9E4670474D
:10118800000000000000000001020304060708092F
:08119800000000000102030445
:0811A00098F0FF7F0100000040
:0411A800ED0100084D
:0411AC00C90100086D
:0C11B0000024F40001000000100000000A
:04000005080010D50A
:00000001FF
